:02000002D0002C
:1040000000400D00B0560D00000006000C00050138
:08401000040115050000000089
:10401800E4520D0009480A49884208B505D0094A02
:10402800824202D0121A01F015F90748074A002106
:10403800121A01F01AF9014808BD00BF58E303201D
:1040480020560D00C0E30320C0E30320F0E703205F
:1040580070B500F083FB074C074BE41AA408002551
:104068001E46A54204D056F8253098470135F8E792
:1040780070BD00BF20560D00E4550D0000F01AB8C1
:1040880008B500F02FF8BDE8084000F035BB00F097
:1040980011BA00F00FBA0078B0FA80F04009704702
:1040A8000123037070470000014B01221A7070470A
:1040B800C4E3032007B50021072000F001FF012118
:1040C800052000F0FDFE0023009301224FF0FF338E
:1040D8000349072000F054FC03B05DF804FB00BF5F
:1040E800B1400D0010B50B4C23788BB10121052090
:1040F80000F0F7FE4FF47A7000F0C0FA00210520B6
:1041080000F0EFFE4FF47A7000F0B8FA0023237045
:1041180010BD00BFC4E3032008B500F01FF8064B2C
:1041280000221A705A804FF6FF729A800320BDE869
:10413800084000F03BB900BFC6E3032008B5024BB6
:104148001B689B68019308BD6802030008B5024B11
:104158001B68DB68019308BD6802030008B5024BC1
:104168001B681B68019308BD2C02030008B5024BAD
:104178001B689B68019308BD2C02030008B5024B1D
:104188001B68DB68019308BD2C02030008B5024BCD
:104198001B681B69019308BD2C02030008B5024B7C
:1041A8001B689B69019308BD2C02030008B5024BEC
:1041B8001B68DB69019308BD2C02030008B5024B9C
:1041C8001B68DB69019308BD3002030008B5024B88
:1041D8001B681B6A019308BD3002030008B5024B37
:1041E8001B685B68019308BD1802030008B5024B01
:1041F8001B685B69019308BD1802030008B5024BF0
:104208001B689B68019308BD4802030008B5024B70
:104218001B681B69019308BD4802030008B5024BDF
:104228001B685B69019308BD4802030008B5024B8F
:104238001B681B6B019308BD4802030008B5024BBD
:104248001B685B6C019308BD4802030008B5024B6C
:104258001B685B69019308BD6402030008B5024B43
:104268001B681B68019308BD3C02030008B5024B9C
:104278001B68DB68019308BD3C02030008B5024BCC
:104288001B681B69019308BD3C02030008B5024B7B
:104298001B685B69019308BD3C02030008B5024B2B
:1042A8001B689B69019308BD3C02030008B5024BDB
:1042B8001B68DB69019308BD3C02030008B5024B8B
:1042C8001B681B6A019308BD3C02030008B5024B3A
:1042D8001B689B6A019308BD3C02030008B5024BAA
:1042E8001B681B6A019308BD2802030008B5024B2E
:1042F8001B685B6A019308BD2802030008B5024BDE
:104308001B689B6A019308BD2802030008B5024B8D
:104318001B68DB6A019308BD2802030008B5024B3D
:104328001B681B6B019308BD2802030008B5024BEC
:104338001B685B6B019308BD2802030008B5024B9C
:104348001B681B6C019308BD2802030008B5024BCB
:104358001B681B68019308BD4C02030008B5024B9B
:104368001B681B69019308BD4C02030008B5024B8A
:104378001B685B69019308BD4C02030008B5024B3A
:104388001B689B69019308BD4C02030008B5024BEA
:104398001B68DB69019308BD4C02030008B5024B9A
:1043A8001B681B6A019308BD4C02030008B5024B49
:1043B8001B685B68019308BD2002030008B5024B27
:1043C8001B685B69019308BD2002030008B5034B15
:1043D8001B68D3F88830019308BD00002002030051
:1043E80008B5034B1B68D3F89430019308BD00004F
:1043F8002002030008B5024B1B685B68019308BDE7
:104408004002030008B5024B1B689B68019308BD76
:104418004002030008B5024B1B68DB68019308BD26
:104428004002030008B5024B1B681B69019308BDD5
:104438004002030008B5024B1B685B69019308BD85
:104448004002030008B5024B1B689B69019308BD35
:104458004002030008B5024B1B68DB69019308BDE5
:104468004002030008B5024B1B681B6A019308BD94
:104478004002030008B5024B1B681B6B019308BD83
:104488004002030008B5024B1B685B6B019308BD33
:104498004002030008B5024B1B68DB6B019308BDA3
:1044A8004402030008B5024B1B681B68019308BD52
:1044B8001C02030008B5024B1B685B68019308BD2A
:1044C8001C020300002211464068FFF7CBBF002200
:1044D80011464068FFF7D6BF00224068FFF7CABF01
:1044E800002281F001014068FFF7B4BF00231A469B
:1044F80019464068FFF7A6BF00231A4619464068C8
:10450800FFF798BF002211464068FFF78BBF0022D3
:1045180011464068FFF776BF002202214068FFF786
:1045280079BF00231A464068FFF764BF024B032295
:104538005A60024A1A607047CCE3032000530D000A
:10454800704710B51021044600F02BFD204610BD21
:1045580070B5084B0360044600250E4640F80C5F12
:10456800FFF764FE30462671FFF728FEA560204657
:1045780070BD00BF34530D000079FFF727BE00005F
:10458800044B00204FF6FF72187058809A80FFF78E
:104598000DBF00BFD4E30320024800230360FFF7E8
:1045A8004DBE00BFDCE30320F8B506460D468F1864
:1045B8000024BD420CD0336815F8011B9B683046B7
:1045C8009847002801DB0444F3E7002C08BF0446A1
:1045D8002046F8BD70B505460C46084649B100F0BE
:1045E80075FE2B68024621462846DB68BDE8704008
:1045F800184770BD03689B68184730B58BB00B46E9
:1046080000218DF82410012A98BF0A220DF12304F5
:10461800B3FBF2F505FB123303F0FF03092B94BF3C
:1046280030333733DBB2214604F801392B46002DED
:10463800EED1FFF7CFFF0BB030BD10B42AB9036835
:104648005DF8044B9B68C9B21847D2B25DF8044BB9
:10465800FFF7D3BFFFF7F1BF014B024A1A6070475B
:10466800E0E30320F4530D00024B1A68024B1A6072
:10467800704700BF58E30320E4E303200021FFF75D
:104688009DBE10B58368044613B1032201469847BE
:10469800204610BD10B50446FFF7F3FF204610BDB5
:1046A8000348044A04490023836000F075BC00BF36
:1046B800E8E30320C0E303209D460D0008B50C4B3A
:1046C80033B100F035F903681B699847002809DC05
:1046D800084B63B100F0D6F903681B6998470028B6
:1046E80003DC08BDAFF30080F2E7AFF3008008BD3C
:1046F800000000000000000008B5FFF7DFFFFFF72B
:1047080075FD014B186008BD34E7032007B5002389
:1047180000931A466FF07701FFF762FE03B05DF869
:1047280004FB000007B543880A2B08D0502B09D199
:10473800094B1B683BB103B05DF804EB1847FFF762
:10474800E5FF06E0002300931A466FF07701FFF7B4
:1047580047FE03B05DF804FBF8E3032010B5FFF74C
:104768003DFD044600F08AFD074B13B12046AFF328
:10477800008000210448FFF78DFE00210348BDE8B2
:104788001040FFF723BE00BF000000002D470D00BA
:10479800704710B51821044600F003FC204610BDF0
:1047A800F0B5037D062B8DB00E4600F104074FF0DF
:1047B800000402D000F1080518E00CAD394605F8F0
:1047C800304D2F232A460A20FFF740FD284600F0E7
:1047D8007DFD33680246DB682946304698470FE07E
:1047E80024B12E213046FFF705FF044415F8011DBA
:1047F8000A223046FFF72EFFBD420444F0D120467E
:104808000DB0F0BD10B5054B0446112240F8043B2D
:10481800002100F02AFD204610BD00BF50540D00B5
:104828000346074A10B543F8042B01F1100251F86A
:10483800044B43F8044B9142F9D10A781A7010BD21
:1048480050540D0010B59DF8084044EA032343EA8C
:10485800024242EA016104234160037510BD37B585
:104868000D788B784A78C97800912946FFF7EAFFD6
:1048780003B030BD41747047704708B50021007C13
:10488800FFF77CFD30EA200028BF4FF0FF3008BD5D
:1048980008B50121007CFFF771FD30EA200028BF30
:1048A8004FF0FF3008BD08B5007CFFF75FFD20EA38
:1048B800E07008BD08B5007CFFF750FD20EAE07005
:1048C80008BD007CFFF76ABD10B51421044600F04E
:1048D80068FB204610BD38B50446007C0D46FFF73E
:1048E80045FD002801DC607C28B12946207CFFF7C3
:1048F8004DFD20EAE07038BD10B504460023636022
:104908004FF47A73A360054B236001230846217492
:1049180063741146FFF71AFD204610BD64540D005C
:1049280010B514220446002100F09FFC204610BD5B
:1049380030B50E4D87B001A8FFF7F2FF296811F0D6
:10494800010410D12846FFF7A6FB60B101AA214651
:104958000748FFF7D1FF2846FFF7A2FB054A06499B
:10496800034800F019FB024807B030BDFCE3032000
:1049780000E40320C0E3032081480D000047000045
:10498800F0B585B01C4605460E461746FFF70EFCE7
:10499800002084424FF0040303908DF80C30A5BF2B
:1049A8009DF828308DF80E30034603AB0093284657
:1049B8003B4632460449A8BF8DF80D40FFF7EEFB91
:1049C800012005B0F0BD00BF85490D007047417456
:1049D800704708B5007CFFF779FC20EAE07008BD55
:1049E80008B5007CFFF74AFC20EAE07008BD08B56E
:1049F800007CFFF753FC30EA200028BF4FF0FF305F
:104A080008BD08B5007CFFF741FC30EA200028BF4C
:104A18004FF0FF3008BD007CFFF748BC10B51421EB
:104A2800044600F0BEFA204610BD70B5457C044629
:104A38000E4625B9007CFFF749FC002805DD314604
:104A4800207CBDE87040FFF711BC284670BD00000F
:104A580010B5044608461146002262604FF47A7287
:104A6800A260054A22600122207462741A46FFF788
:104A7800F5FB204610BD00BF94540D00007CFFF7E5
:104A88001DBC000038B50C4D296811F0010411D186
:104A98002846FFF700FB68B1084A094B0948214638
:104AA800FFF7D6FF2846FFF7FBFA074A07490548EC
:104AB80000F072FA034838BDACE40320B0E40320E8
:104AC80028E4032014E40320C0E30320D5490D00A3
:104AD8007047F8B5064615460C468F18BC4206D0F6
:104AE800336814F8011B9B6830469847F6E7284658
:104AF800F8BD0022007CFFF7F1BB0021007CFFF726
:104B0800F5BB0021007CFFF7F9BB0021007CFFF713
:104B1800FDBB0021007CFFF701BC10B51421044641
:104B280000F03FFA204610BD10B504464FF47A73E2
:104B38000846A3600021044B207461602360FFF7DE
:104B4800FDFB204610BD00BFC4540D000021007CB1
:104B5800FFF7ECBB002211464068FFF783BC002238
:104B680011464068FFF78EBC00224068FFF782BC00
:104B7800002281F001014068FFF76CBC00231A464F
:104B880019464068FFF75EBC00231A46194640687C
:104B9800FFF750BC002211464068FFF743BC0022D3
:104BA80011464068FFF72EBC002202214068FFF73B
:104BB80031BC00231A464068FFF71CBC38B50546CF
:104BC80088B104684CB1A3681BB103222146204672
:104BD80098471021204600F0E4F928461421BDE842
:104BE800384000F0DEB938BD10B103685B6818477B
:104BF800704710B503680446BBB15868FFF7FEFA62
:104C080078B923685A7C12B95868FFF7FFFA236805
:104C18005868FFF703FB20680023236028B1FFF7DB
:104C2800CDFF206808B1FFF7C9FF204610BD00007E
:104C380038B50C4B03600446D0F8CC0108B1FFF737
:104C480028FAD4F8C45135B12846FFF7D2FF042119
:104C5800284600F0A6F9A06808B1FFF7C5FF20466E
:104C680038BD00BFEC540D0038B50D4C0D4B23601A
:104C78000025022304F5E4706360A560C4F8C451FC
:104C8800C4F8C851FFF7DAFA074BC4F8CC512360CF
:104C98002046064A0649BDE8384000F07DB900BF05
:104CA80034E5032054550D00EC540D00C0E30320F7
:104CB800394C0D00002211464068FFF7B3BB0022B3
:104CC80011464068FFF7CEBB002211464068FFF747
:104CD800D9BB00224068FFF7CDBB002281F001015B
:104CE8004068FFF7B7BB00231A4619464068FFF72C
:104CF800A9BB00231A4619464068FFF79BBB002250
:104D080011464068FFF77EBB002202214068FFF78A
:104D180081BB00231A464068FFF76CBB024B042294
:104D28005A60024A1A60704704E7032020550D00B4
:104D380000231A464068FFF75DBB00220221406845
:104D4800FFF768BB002211464068FFF75BBB0022F3
:104D580011464068FFF766BB00231A4619464068AB
:104D6800FFF768BB00231A4619464068FFF76ABB7D
:104D7800002281F001014068FFF76CBB0022406807
:104D8800FFF778BB002211464068FFF77BBB002283
:104D980011464068FFF766BB2DE9F043002495B043
:104DA80016460D460746FFF72DFD214620220CA882
:104DB800009400F05AFA40230C9321466B460CAA43
:104DC8003046FFF7C3F90446002844D102460121C2
:104DD8006868FFF727FB0221804622466868FFF7CC
:104DE80021FB009E81462146002E34D0002932D175
:104DF8007368022B02D00A2B09D02AE0B8F1000F01
:104E080027D0716938460431FFF729FD20E0B9F150
:104E1800000F1ED07469112201A800F026FA06239B
:104E28008DF8143001AD04F1080318341868596876
:104E38002A4603C20833A3421546F7D101A906A89A
:104E480007ADFFF7EDFC0FCD3C1D0FC42B68237099
:104E58000121F669C8E70098FFF770F9384615B0E0
:104E6800BDE8F083024B034A1A6000225A6070477B
:104E78000CE7032054550D0010B504460F48FFF702
:104E88007BFB28B1A4F10B03022B01D8002010BD35
:104E980000F062F8FFF75AFE08B1012CF6D9FFF7C7
:104EA800F1FDFFF7EBFD18B1A4F10903012BEDD9D2
:104EB800232C8CBF0020012010BD00BF14E7032065
:104EC800232838B504460D460AD8FF2908D0FFF72D
:104ED800D3FF28B129462046BDE83840FFF746B938
:104EE80038BD38B504460D46FFF748F9FF2810D0FD
:104EF800062804D84D2323FA00F0C30709D4204616
:104F0800FFF7BAFF28B129462046BDE83840FFF729
:104F18003DB938BD70B50C4C0C4E0D4D00212046E6
:104F2800FFF716FB20460B4C3246294600F034F8B2
:104F380001212046FFF70CFB324629462046BDE8F2
:104F4800704000F029B800BF14E70320C0E3032035
:104F580049450D0024E7032038B50B4D296811F0A9
:104F680001040FD12846FFF796F858B121460748A3
:104F7800FFF7DAFD2846FFF793F8054A0549034885
:104F880000F00AF8014838BD38E703203CE7032061
:104F9800C0E30320D94A0D000B460146184600F02D
:104FA8004BB9FFF774B80000184B1A68D1075CBFFB
:104FB80001221A60164B1A68D2075CBF01221A60D8
:104FC800144B1A68D0075CBF01221A60124B1A688A
:104FD800D1075CBF01221A60104B1A68D2075CBF68
:104FE80001221A600E4B1A68D0075CBF01221A60B2
:104FF8000C4B1A68D1075CBF01221A600A4B1A6869
:10500800D2075CBF01221A60704700BF6CE703201B
:1050180068E7032064E7032060E703205CE70320D8
:1050280058E7032054E7032050E70320244B1A686D
:10503800D0075CBF01221A60224B1A68D1075CBFF7
:1050480001221A60204B1A68D2075CBF01221A603D
:105058001E4B1A68D0075CBF01221A601C4B1A68E5
:10506800D1075CBF01221A601A4B1A68D2075CBFCD
:1050780001221A60184B1A68D0075CBF01221A6017
:10508800164B1A68D1075CBF01221A60144B1A68C4
:10509800D2075CBF01221A60124B1A68D0075CBFA6
:1050A80001221A60104B1A68D1075CBF01221A60EE
:1050B8000E4B1A68D2075CBF01221A60704700BF06
:1050C8009CE7032098E7032094E7032090E7032058
:1050D8008CE7032088E7032084E7032080E7032088
:1050E8007CE7032078E7032074E7032070E70320B8
:1050F800244B1A68D0075CBF01221A60224B1A6839
:10510800D1075CBF01221A60204B1A68D2075CBF26
:1051180001221A601E4B1A68D0075CBF01221A6070
:105128001C4B1A68D1075CBF01221A601A4B1A6817
:10513800D2075CBF01221A60184B1A68D0075CBFFF
:1051480001221A60164B1A68D1075CBF01221A6047
:10515800144B1A68D2075CBF01221A60124B1A68F6
:10516800D0075CBF01221A60104B1A68D1075CBFD8
:1051780001221A600E4B1A68D2075CBF01221A601E
:10518800704700BFCCE70320C8E70320C4E703202B
:10519800C0E70320BCE70320B8E70320B4E70320F7
:1051A800B0E70320ACE70320A8E70320A4E7032027
:1051B800A0E70320184B1A68D1075CBF01221A60C8
:1051C800164B1A68D2075CBF01221A60144B1A6882
:1051D800D0075CBF01221A60124B1A68D1075CBF66
:1051E80001221A60104B1A68D2075CBF01221A60AC
:1051F8000E4B1A68D0075CBF01221A600C4B1A6864
:10520800D1075CBF01221A600A4B1A68D2075CBF3B
:1052180001221A60704700BFECE70320E8E703208B
:10522800E4E70320E0E70320DCE70320D8E70320D6
:10523800D4E70320D0E7032010B5054C13462CB162
:105248000A4601460220AFF3008010BD204610BD7B
:105258000000000010B5431E0A44914204D011F822
:10526800014B03F8014FF8E710BD0244034693428F
:1052780002D003F8011BFAE77047000038B5124B5B
:105288001C68A36B0546D3B91820FFF70BF943F246
:105298000E33A06303804AF6CD33438041F23423B2
:1052A80083804EF26D63C3804DF6EC630381052362
:1052B80043810B23838101220023C0E90423A36BCC
:1052C80000221D615A6138BDBCE30320034613F870
:1052D800012B002AFBD1181A013870471D400D0018
:1052E80059400D0085400D0089400D000000000068
:1052F80000000000000000002B450D0021450D00B6
:1053080017450D000D450D0001450D00F5440D0034
:10531800E9440D00E1440D00D7440D00CD440D00D3
:10532800A14D0D00000000000000000049450D00DF
:105338004B450D0066006C6E00666E00636F646519
:105348000064657461696C000D0A002530313075A0
:1053580020005D20002564002C200028293A200028
:10536800205B00636F6465203D200025690064654B
:105378007461696C73203D20006261756400536537
:105388007269616C0053657269616C31007479707F
:105398006500706172616D00636D64006964006826
:1053A8006E64007374726D0066696C74006C766C60
:1053B8000061646448616E646C65720072656D6F4B
:1053C800766548616E646C657200656E756D4861DE
:1053D8006E646C657273004A534F4E537472656104
:1053E8006D4C6F6748616E646C6572006170700027
:1053F8006E6F6E6500747261636500696E666F003A
:105408007761726E006572726F720070616E6963A7
:1054180000616C6C005A00252B3033643A25303219
:10542800750025592D256D2D25645425483A254D9F
:105438003A2553257A0061736374696D650000002D
:105448000000000000000000A9470D0099470D006A
:105458009B470D00000000000000000081480D007F
:10546800D1480D00DF480D00B1450D00BD480D00C5
:1054780083480D0099480D00CB480D00AF480D003A
:105488007D480D000000000000000000D5490D0017
:10549800254A0D00334A0D00B1450D00E9490D00BC
:1054A8000B4A0D00F7490D001F4A0D00D7490D00A2
:1054B800DB490D000000000000000000D94A0D0083
:1054C800234B0D00FB4A0D00DB4A0D00034B0D007A
:1054D8000B4B0D00134B0D001B4B0D000000000083
:1054E80000000000BB4B0D00B14B0D00A74B0D0099
:1054F8009D4B0D00914B0D00854B0D00794B0D0018
:10550800714B0D00674B0D005D4B0D00A14D0D005B
:1055180000000000000000001B4D0D00114D0D00A3
:10552800074D0D00BD4C0D00FB4C0D00EF4C0D0060
:10553800E34C0D00DB4C0D00D14C0D00C74C0D00A9
:10554800A14D0D000000000000000000394D0D00C5
:10555800434D0D004D4D0D00574D0D00614D0D0093
:105568006D4D0D00794D0D00854D0D008D4D0D00D3
:10557800974D0D00A14D0D00000000000000000037
:105588000000000000000000000000000000000013
:105598000000000000000000000000000000000003
:1055A80000000000000000000000000000000000F3
:1055B80000000000000000000000000000000000E3
:1055C80000000000000000000000000000000000D3
:1055D80000000000000000004300000021410D0011
:1055E80035450D0089450D00A1450D0061460D00AA
:1055F80071460D00A9460D00714C0D00254D0D009A
:105608006D4E0D001D4F0D00B14F0D0035500D00B2
:08561800F9500D00BD510D0019
:105620003E540D000000000080550D00A0550D00F7
:10563000C0550D0000000000000000000000000048
:1056400000000000E0550D00000000000000000018
:10565000000000000000000000000000000000004A
:10566000000000000000000000000000000000003A
:10567000000000000000000000000000000000002A
:08568000000000005CE30320C0
:10568800FFFFFFFF00000102030405060708090ADF
:105698000B0C0D0E0F101112131415161718191ADA
:0856A8001B1C1D1E1F20280021
:0456B00078563412E2
:04000003D0004018D1
:00000001FF
