:02000002D0002C
:1040000000400D0050570D00000006000C00050197
:08401000040115050000000089
:1040180084530D0009480A49884208B505D0094A61
:10402800824202D0121A01F065F90748074A0021B6
:10403800121A01F06AF9014808BD00BF58E30320CD
:10404800C0560D00C0E30320C0E30320F0E70320BF
:1040580070B500F0D9FB074C074BE41AA4080025FB
:104068001E46A54204D056F8253098470135F8E792
:1040780070BD00BFC0560D0084560D0000F017B883
:1040880008B500F018F8BDE8084000F08BBB00F058
:1040980067BA00F065BA0078B0FA80F04009704756
:1040A8000123037070470368C9B29B681847012150
:1040B800062000F055BF08B500F09EFF00F074FD23
:1040C80000F09AFF112100F087FD0121062000F081
:1040D80058FF00F091FF0C21FFF7E5FF00F08CFF7F
:1040E80000F081FD032000F01FFB00F085FF012296
:1040F800112100F068FD00F07FFF03681B699847F5
:1041080020B90121062000F03CFFF4E70021062039
:1041180000F037FF00F070FF03685B6998470021E3
:10412800062000F02EFF642000F0FEFA00F064FF85
:1041380000F03AFD00F060FF112100F04DFD012173
:10414800062000F01EFF00F057FF0D21FFF7ABFF20
:1041580000F052FF00F047FD032000F0E5FA00F000
:104168004BFF0122112100F02EFD00F045FF0368EE
:104178001B69984720B90121062000F002FFF4E7E7
:104188000021062000F0FDFE00F036FF03685B69A1
:1041980098470620002100F0F4FE6420BDE808409E
:1041A80000F0C2BA08B500F01FF8064B00221A70DA
:1041B8005A804FF6FF729A800320BDE8084000F04D
:1041C8004BB900BFC4E3032008B5024B1B689B68CA
:1041D800019308BD6802030008B5024B1B68DB6841
:1041E800019308BD6802030008B5024B1B681B68F1
:1041F800019308BD2C02030008B5024B1B689B689D
:10420800019308BD2C02030008B5024B1B68DB684C
:10421800019308BD2C02030008B5024B1B681B69FB
:10422800019308BD2C02030008B5024B1B68DB692B
:10423800019308BD3002030008B5024B1B681B6AD6
:10424800019308BD3002030008B5024B1B685B6888
:10425800019308BD1802030008B5024B1B685B698F
:10426800019308BD1802030008B5024B1B689B6840
:10427800019308BD4802030008B5024B1B681B697F
:10428800019308BD4802030008B5024B1B685B692F
:10429800019308BD4802030008B5024B1B681B6B5D
:1042A800019308BD4802030008B5024B1B685B6C0C
:1042B800019308BD4802030008B5024B1B685B69FF
:1042C800019308BD6402030008B5024B1B681B6814
:1042D800019308BD3C02030008B5024B1B68DB686C
:1042E800019308BD3C02030008B5024B1B681B691B
:1042F800019308BD3C02030008B5024B1B685B69CB
:10430800019308BD3C02030008B5024B1B689B697A
:10431800019308BD3C02030008B5024B1B68DB692A
:10432800019308BD3C02030008B5024B1B681B6AD9
:10433800019308BD3C02030008B5024B1B689B6A49
:10434800019308BD3C02030008B5024B1B68DB68FB
:10435800019308BD2802030008B5024B1B685B697E
:10436800019308BD2802030008B5024B1B689B692E
:10437800019308BD2802030008B5024B1B68DB69DE
:10438800019308BD2802030008B5024B1B681B6A8D
:10439800019308BD2802030008B5024B1B685B6A3D
:1043A800019308BD2802030008B5024B1B689B6AED
:1043B800019308BD2802030008B5024B1B68DB6A9D
:1043C800019308BD2802030008B5024B1B681B6B4C
:1043D800019308BD2802030008B5024B1B685B6BFC
:1043E800019308BD2802030008B5024B1B681B6C2B
:1043F800019308BD2802030008B5024B1B681B681F
:10440800019308BD4C02030008B5024B1B681B69E9
:10441800019308BD4C02030008B5024B1B685B6999
:10442800019308BD4C02030008B5024B1B689B6949
:10443800019308BD4C02030008B5024B1B68DB69F9
:10444800019308BD4C02030008B5024B1B681B6AA8
:10445800019308BD4C02030008B5024B1B685B685A
:10446800019308BD2002030008B5024B1B685B6975
:10447800019308BD2002030008B5034B1B68D3F85D
:104488008830019308BD00002002030008B5034BE3
:104498001B68D3F89430019308BD00002002030084
:1044A80008B5024B1B685B68019308BD4002030016
:1044B80008B5024B1B689B68019308BD40020300C6
:1044C80008B5024B1B68DB68019308BD4002030076
:1044D80008B5024B1B681B69019308BD4002030025
:1044E80008B5024B1B685B69019308BD40020300D5
:1044F80008B5024B1B689B69019308BD4002030085
:1045080008B5024B1B68DB69019308BD4002030034
:1045180008B5024B1B681B6A019308BD40020300E3
:1045280008B5024B1B681B6B019308BD40020300D2
:1045380008B5024B1B685B6B019308BD4002030082
:1045480008B5024B1B68DB6B019308BD44020300EE
:1045580008B5024B1B681B68019308BD1C020300C9
:1045680008B5024B1B685B68019308BD1C02030079
:10457800002211464068FFF7CBBF00221146406871
:10458800FFF7D6BF00224068FFF7CABF002281F0BC
:1045980001014068FFF7B4BF00231A461946406876
:1045A800FFF7A6BF00231A4619464068FFF798BFD1
:1045B800002211464068FFF78BBF00221146406871
:1045C800FFF776BF002202214068FFF779BF00237A
:1045D8001A464068FFF764BF024B03225A60024A3A
:1045E8001A607047CCE30320A0530D00704710B544
:1045F8001021044600F025FD204610BD70B5084B7B
:104608000360044600250E4640F80C5FFFF744FEA1
:1046180030462671FFF708FEA560204670BD00BF32
:10462800D4530D000079FFF707BE0000044B0020AB
:104638004FF6FF72187058809A80FFF70DBF00BFC1
:10464800D4E30320024800230360FFF72DBE00BF18
:10465800DCE30320F8B506460D468F180024BD425A
:104668000CD0336815F8011B9B6830469847002822
:1046780001DB0444F3E7002C08BF04462046F8BDDC
:1046880070B505460C46084649B100F06FFE2B6828
:10469800024621462846DB68BDE87040184770BDD1
:1046A80003689B68184730B58BB00B4600218DF81E
:1046B8002410012A98BF0A220DF12304B3FBF2F556
:1046C80005FB123303F0FF03092B94BF3033373354
:1046D800DBB2214604F801392B46002DEED1FFF755
:1046E800CFFF0BB030BD10B42AB903685DF8044B96
:1046F8009B68C9B21847D2B25DF8044BFFF7D3BF25
:10470800FFF7F1BF014B024A1A607047E0E303204C
:1047180094540D00024B1A68024B1A60704700BF90
:1047280058E30320E4E303200021FFF79DBE10B502
:104738008368044613B1032201469847204610BDFA
:1047480010B50446FFF7F3FF204610BD0348044A9E
:1047580004490023836000F06FBC00BFE8E3032036
:10476800C0E3032049470D0008B50C4B33B100F0F6
:1047780035F903681B699847002809DC084B63B1C1
:1047880000F0AEF903681B699847002803DC08BDF0
:10479800AFF30080F2E7AFF3008008BD000000002F
:1047A8000000000008B5FFF7DFFFFFF755FD014BDC
:1047B800186008BD34E7032007B5002300931A46A4
:1047C8006FF07701FFF762FE03B05DF804FB0000AD
:1047D80007B543880A2B08D0502B09D1094B1B6811
:1047E8003BB103B05DF804EB1847FFF7E5FF06E0BF
:1047F800002300931A466FF07701FFF747FE03B0D6
:104808005DF804FBF8E3032010B5FFF71DFD04462F
:1048180000F084FD074B13B12046AFF30080002160
:104828000448FFF78DFE00210348BDE81040FFF75C
:1048380023BE00BF00000000D9470D00704710B527
:104848001821044600F0FDFB204610BDF0B5037D9D
:10485800062B8DB00E4600F104074FF0000402D07D
:1048680000F1080518E00CAD394605F8304D2F2346
:104878002A460A20FFF720FD284600F077FD336816
:104888000246DB682946304698470FE024B12E21BE
:104898003046FFF705FF044415F8011D0A2230468B
:1048A800FFF72EFFBD420444F0D120460DB0F0BD05
:1048B80010B5054B0446112240F8043B002100F0D6
:1048C80024FD204610BD00BFF0540D000346074AE2
:1048D80010B543F8042B01F1100251F8044B43F8CA
:1048E800044B9142F9D10A781A7010BDF0540D00AA
:1048F80010B59DF8084044EA032343EA024242EA1D
:10490800016104234160037510BD37B50D788B78BC
:104918004A78C97800912946FFF7EAFF03B030BD0D
:1049280041747047704708B50021007CFFF77CFD93
:1049380030EA200028BF4FF0FF3008BD08B501213C
:10494800007CFFF771FD30EA200028BF4FF0FF30F0
:1049580008BD08B5007CFFF75FFD20EAE07008BDE0
:1049680008B5007CFFF750FD20EAE07008BD007C28
:10497800FFF76ABD10B51421044600F062FB20461B
:1049880010BD38B50446007C0D46FFF745FD0028EC
:1049980001DC607C28B12946207CFFF74DFD20EA28
:1049A800E07038BD10B50446002363604FF47A7395
:1049B800A360054B236001230846217463741146E4
:1049C800FFF71AFD204610BD04550D0010B514223E
:1049D8000446002100F099FC204610BD30B50E4D6C
:1049E80087B001A8FFF7F2FF296811F0010410D180
:1049F8002846FFF750FB60B101AA21460748FFF798
:104A0800D1FF2846FFF74CFB054A0649034800F04A
:104A180013FB024807B030BDFCE3032000E4032089
:104A2800C0E303202D490D0070474174704708B555
:104A3800007CFFF781FC20EAE07008BD08B5007C27
:104A4800FFF752FC20EAE07008BD08B5007CFFF7CC
:104A58005BFC30EA200028BF4FF0FF3008BD08B5E6
:104A6800007CFFF749FC30EA200028BF4FF0FF30F8
:104A780008BD007CFFF750BC10B51421044600F0B7
:104A8800E0FA204610BD70B5457C04460E4625B9AF
:104A9800007CFFF751FC002805DD3146207CBDE88D
:104AA8007040FFF719BC284670BD000010B50446D9
:104AB80008461146002262604FF47A72A260054AE5
:104AC80022600122207462741A46FFF7FDFB20461B
:104AD80010BD00BF34550D00007CFFF725BC000059
:104AE80038B50C4D296811F0010411D12846FFF79B
:104AF800D2FA68B1084A094B09482146FFF7D6FFA0
:104B08002846FFF7CDFA074A0749054800F094FA06
:104B1800034838BDACE40320B0E4032028E40320B4
:104B280014E40320C0E30320314A0D007047F8B5B0
:104B3800064615460C468F18BC4206D0336814F852
:104B4800011B9B6830469847F6E72846F8BD0022C7
:104B5800007CFFF719BC0021007CFFF71DBC002179
:104B6800007CFFF721BC0021007CFFF725BC002159
:104B7800007CFFF729BC10B51421044600F061FA47
:104B8800204610BD10B504464FF47A730846A3605A
:104B98000021044B207461602360FFF725FC204648
:104BA80010BD00BF64550D0000231A461946007C4D
:104BB800FFF7CABB13B50024007C0094FFF7CCFBB9
:104BC800C0B202B010BD0123D2B2C9B2FFF7F2BF22
:104BD8000022007CFFF7C8BBC9B2FFF7F9BF00226B
:104BE800007CFFF7C9BB0121FFF7F9BF0021007C5A
:104BF800FFF7F2BB002211464068FFF789BC00228C
:104C080011464068FFF794BC00224068FFF788BC53
:104C1800002281F001014068FFF772BC00231A46A8
:104C280019464068FFF764BC00231A4619464068D5
:104C3800FFF756BC002211464068FFF749BC002226
:104C480011464068FFF734BC002202214068FFF794
:104C580037BC00231A464068FFF722BC38B5054622
:104C680088B104684CB1A3681BB1032221462046D1
:104C780098471021204600F0E4F928461421BDE8A1
:104C8800384000F0DEB938BD10B103685B681847DA
:104C9800704710B503680446BBB15868FFF7E4FADB
:104CA80078B923685A7C12B95868FFF7E5FA23687F
:104CB8005868FFF7E9FA20680023236028B1FFF756
:104CC800CDFF206808B1FFF7C9FF204610BD0000DE
:104CD80038B50C4B03600446D0F8CC0108B1FFF797
:104CE800D8F9D4F8C45135B12846FFF7D2FF0421CA
:104CF800284600F0A6F9A06808B1FFF7C5FF2046CE
:104D080038BD00BF8C550D0038B50D4C0D4B2360D8
:104D18000025022304F5E4706360A560C4F8C4515B
:104D2800C4F8C851FFF7C0FA074BC4F8CC51236048
:104D38002046064A0649BDE8384000F07DB900BF64
:104D480034E50320F4550D008C550D00C0E3032015
:104D5800D94C0D00002211464068FFF7B9BB00226C
:104D680011464068FFF7D4BB002211464068FFF7A0
:104D7800DFBB00224068FFF7D3BB002281F00101AE
:104D88004068FFF7BDBB00231A4619464068FFF785
:104D9800AFBB00231A4619464068FFF7A1BB0022A3
:104DA80011464068FFF784BB002202214068FFF7E4
:104DB80087BB00231A464068FFF772BB024B0422E8
:104DC8005A60024A1A60704704E70320C0550D0074
:104DD80000231A464068FFF763BB0022022140689F
:104DE800FFF76EBB002211464068FFF761BB002247
:104DF80011464068FFF76CBB00231A461946406805
:104E0800FFF76EBB00231A4619464068FFF770BBD0
:104E1800002281F001014068FFF772BB0022406860
:104E2800FFF77EBB002211464068FFF781BB0022D6
:104E380011464068FFF76CBB2DE9F043002495B09C
:104E480016460D460746FFF733FD214620220CA8DB
:104E5800009400F05AFA40230C9321466B460CAAA2
:104E68003046FFF7B9F90446002844D1024601212B
:104E78006868FFF72DFB0221804622466868FFF725
:104E880027FB009E81462146002E34D0002932D1CE
:104E98007368022B02D00A2B09D02AE0B8F1000F60
:104EA80027D0716938460431FFF72FFD20E0B9F1AA
:104EB800000F1ED07469112201A800F026FA0623FB
:104EC8008DF8143001AD04F10803183418685968D6
:104ED8002A4603C20833A3421546F7D101A906A8FA
:104EE80007ADFFF7F3FC0FCD3C1D0FC42B682370F3
:104EF8000121F669C8E70098FFF766F9384615B04A
:104F0800BDE8F083024B034A1A6000225A607047DA
:104F18000CE70320F4550D0010B504460F48FFF7C1
:104F280081FB28B1A4F10B03022B01D8002010BD8E
:104F380000F062F8FFF75AFE08B1012CF6D9FFF726
:104F4800CFFDFFF7C9FD18B1A4F10903012BEDD975
:104F5800232C8CBF0020012010BD00BF14E70320C4
:104F6800232838B504460D460AD8FF2908D0FFF78C
:104F7800D3FF28B129462046BDE83840FFF73CB9A1
:104F880038BD38B504460D46FFF73EF9FF2810D066
:104F9800062804D84D2323FA00F0C30709D4204675
:104FA800FFF7BAFF28B129462046BDE83840FFF789
:104FB80033B938BD70B50C4C0C4E0D4D0021204650
:104FC800FFF71CFB20460B4C3246294600F034F80C
:104FD80001212046FFF712FB324629462046BDE84C
:104FE800704000F029B800BF14E70320C0E3032095
:104FF800F5450D0024E7032038B50B4D296811F05D
:1050080001040FD12846FFF746F858B12146074852
:10501800FFF7B8FD2846FFF743F8054A0549034856
:1050280000F00AF8014838BD38E703203CE70320C0
:10503800C0E30320354B0D000B460146184600F02F
:105048004BB9FFF724B80000184B1A68D1075CBFAA
:1050580001221A60164B1A68D2075CBF01221A6037
:10506800144B1A68D0075CBF01221A60124B1A68E9
:10507800D1075CBF01221A60104B1A68D2075CBFC7
:1050880001221A600E4B1A68D0075CBF01221A6011
:105098000C4B1A68D1075CBF01221A600A4B1A68C8
:1050A800D2075CBF01221A60704700BF6CE703207B
:1050B80068E7032064E7032060E703205CE7032038
:1050C80058E7032054E7032050E70320244B1A68CD
:1050D800D0075CBF01221A60224B1A68D1075CBF57
:1050E80001221A60204B1A68D2075CBF01221A609D
:1050F8001E4B1A68D0075CBF01221A601C4B1A6845
:10510800D1075CBF01221A601A4B1A68D2075CBF2C
:1051180001221A60184B1A68D0075CBF01221A6076
:10512800164B1A68D1075CBF01221A60144B1A6823
:10513800D2075CBF01221A60124B1A68D0075CBF05
:1051480001221A60104B1A68D1075CBF01221A604D
:105158000E4B1A68D2075CBF01221A60704700BF65
:105168009CE7032098E7032094E7032090E70320B7
:105178008CE7032088E7032084E7032080E70320E7
:105188007CE7032078E7032074E7032070E7032017
:10519800244B1A68D0075CBF01221A60224B1A6898
:1051A800D1075CBF01221A60204B1A68D2075CBF86
:1051B80001221A601E4B1A68D0075CBF01221A60D0
:1051C8001C4B1A68D1075CBF01221A601A4B1A6877
:1051D800D2075CBF01221A60184B1A68D0075CBF5F
:1051E80001221A60164B1A68D1075CBF01221A60A7
:1051F800144B1A68D2075CBF01221A60124B1A6856
:10520800D0075CBF01221A60104B1A68D1075CBF37
:1052180001221A600E4B1A68D2075CBF01221A607D
:10522800704700BFCCE70320C8E70320C4E703208A
:10523800C0E70320BCE70320B8E70320B4E7032056
:10524800B0E70320ACE70320A8E70320A4E7032086
:10525800A0E70320184B1A68D1075CBF01221A6027
:10526800164B1A68D2075CBF01221A60144B1A68E1
:10527800D0075CBF01221A60124B1A68D1075CBFC5
:1052880001221A60104B1A68D2075CBF01221A600B
:105298000E4B1A68D0075CBF01221A600C4B1A68C3
:1052A800D1075CBF01221A600A4B1A68D2075CBF9B
:1052B80001221A60704700BFECE70320E8E70320EB
:1052C800E4E70320E0E70320DCE70320D8E7032036
:1052D800D4E70320D0E7032010B5054C13462CB1C2
:1052E8000A4601460220AFF3008010BD204610BDDB
:1052F8000000000010B5431E0A44914204D011F882
:10530800014B03F8014FF8E710BD024403469342EE
:1053180002D003F8011BFAE77047000038B5124BBA
:105328001C68A36B0546D3B91820FFF711F943F29F
:105338000E33A06303804AF6CD33438041F2342311
:1053480083804EF26D63C3804DF6EC6303810523C1
:1053580043810B23838101220023C0E90423A36B2B
:1053680000221D615A6138BDBCE30320034613F8CF
:10537800012B002AFBD1181A013870471D400D0077
:1053880059400D0085400D0089400D0000000000C7
:105398000000000000000000D7450D00CD450D00BD
:1053A800C3450D00B9450D00AD450D00A1450D00E3
:1053B80095450D008D450D0083450D0079450D007F
:1053C800414E0D000000000000000000F5450D00F2
:1053D800F7450D0066006C6E00666E00636F6465CD
:1053E8000064657461696C000D0A00253031307500
:1053F80020005D20002564002C200028293A200088
:10540800205B00636F6465203D20002569006465AA
:105418007461696C73203D20006261756400536596
:105428007269616C0053657269616C3100747970DE
:105438006500706172616D00636D64006964006885
:105448006E64007374726D0066696C74006C766CBF
:105458000061646448616E646C65720072656D6FAA
:10546800766548616E646C657200656E756D48613D
:105478006E646C657273004A534F4E537472656163
:105488006D4C6F6748616E646C6572006170700086
:105498006E6F6E6500747261636500696E666F0099
:1054A8007761726E006572726F720070616E696307
:1054B80000616C6C005A00252B3033643A25303279
:1054C800750025592D256D2D25645425483A254DFF
:1054D8003A2553257A0061736374696D650000008D
:1054E800000000000000000055480D0045480D0070
:1054F80047480D0000000000000000002D490D0085
:105508007D490D008B490D005D460D0069490D0070
:105518002F490D0045490D0077490D005B490D00E5
:1055280029490D000000000000000000314A0D006C
:10553800814A0D008F4A0D005D460D00454A0D0059
:10554800674A0D00534A0D007B4A0D00334A0D008F
:10555800374A0D000000000000000000354B0D0028
:105568007F4B0D00574B0D00374B0D005F4B0D0067
:10557800674B0D006F4B0D00774B0D0000000000CE
:10558800000000005B4C0D00514C0D00474C0D0015
:105598003D4C0D00314C0D00254C0D00194C0D00F3
:1055A800114C0D00074C0D00FD4B0D00414E0D0038
:1055B8000000000000000000BB4D0D00B14D0D00C3
:1055C800A74D0D005D4D0D009B4D0D008F4D0D003D
:1055D800834D0D007B4D0D00714D0D00674D0D0085
:1055E800414E0D000000000000000000D94D0D00E4
:1055F800E34D0D00ED4D0D00F74D0D00014E0D0072
:105608000D4E0D00194E0D00254E0D002D4E0D00AE
:10561800374E0D00414E0D00000000000000000054
:105628000000000000000000000000000000000072
:105638000000000000000000000000000000000062
:105648000000000000000000000000000000000052
:105658000000000000000000000000000000000042
:105668000000000000000000000000000000000032
:10567800000000000000000043000000AD410D00E4
:10568800E1450D0035460D004D460D000D470D0056
:105698001D470D0055470D00114D0D00C54D0D005E
:1056A8000D4F0D00BD4F0D0051500D00D5500D0090
:0856B80099510D005D520D0037
:1056C000DE540D000000000020560D0040560D0075
:1056D00060560D0000000000000000000000000007
:1056E0000000000080560D000000000000000000D7
:1056F00000000000000000000000000000000000AA
:105700000000000000000000000000000000000099
:105710000000000000000000000000000000000089
:08572000000000005CE303201F
:10572800FFFFFFFF00000102030405060708090A3E
:105738000B0C0D0E0F101112131415161718191A39
:085748001B1C1D1E1F20280080
:045750007856341241
:04000003D0004018D1
:00000001FF
