:02000002D0002C
:1040000000400D00206A0D00000006000C000501B4
:08401000040115050000000089
:1040180060650D0009480A49884208B505D0094A73
:10402800824202D0121A02F041FA0748074A0021D8
:10403800121A02F046FA014808BD00BF08E303203F
:1040480090690D0070E3032070E30320F0E703207C
:1040580070B501F0E1F9074C074BE41AA4080025F4
:104068001E46A54204D056F8253098470135F8E792
:1040780070BD00BF84690D0044690D0000F04CB8A4
:1040880008B500F083F8BDE8084001F093B900F0E6
:1040980021BF00F01FBF00F025BF00F023BF00784C
:1040A800B0FA80F0400970470123037070470000A0
:1040B80098B502F1080323F0070300AFADEB030D39
:1040C8001446684602F0F2F9002310490DF804304E
:1040D800684602F027FA024610B90146FF2010E0B0
:1040E8000B49684602F01EFA024608B9FF2108E0AB
:1040F8000849684602F016FAFF22014608B111463F
:10410800104601F018F9BD4698BD00BF74650D0052
:1041180078650D007E650D0000B5012089B001F0BD
:10412800FAF8164904A800F0E5FF01F0D3F80A22CE
:104138000146684601F002F8694604A801F028F82B
:1041480001680F4800F06CFA684600F08CFF04A87C
:1041580000F089FF0720002101F0D0FF084800F097
:104168007BF940B10749084A054800F0D9FA0549E2
:10417800034800F048FC09B05DF804FB83650D00B6
:1041880074E3032096650D0090650D0008B50A4894
:1041980000F062F910B1084800F009FB072001F0AF
:1041A800BEFF012806D1054A05490348BDE8084075
:1041B80000F0B6BA08BD00BF74E30320A8650D007F
:1041C80096650D0010B5084C00F048FC40F25B7293
:1041D8000649074B204600F057F82046054A06498D
:1041E800BDE8104001F0F0BF74E30320BC650D008A
:1041F800B9400D0070E30320154A0D0038B58469F5
:104208000A4B036005467CB16368013B63605BB998
:10421800236820469B689847A368013BA3601BB9A5
:1042280023682046DB689847284638BD1C680D007F
:1042380010B50446FFF7E2FF20461C2101F0C9FF34
:10424800204610BD38B51D46059B03630023044670
:10425800436302B1826419B104F1380000F05DFFD4
:10426800049B2365069BE069A4F84C50FF2BB8BF5C
:10427800FF23A4F8543008B1FFF70FFFB4F8540037
:10428800FFF707FFE06138BD2DE9FF41044600252F
:10429800174698460E4601F00DFEE5610A4904F1FD
:1042A800380000F027FFFF2302930F2300932046D6
:1042B800A564CDF804803B462A463146FFF7C2FF85
:1042C800204604B0BDE8F08136660D0010B50446FE
:1042D800204601F053FD0028FAD0204601F06FFC7B
:1042E800C0B210BD2DE9F0470546C4698846FFF7FE
:1042F800EDFF2070EB6993F800A04FF001090AF078
:10430800F00A00274E462846FFF7E0FFEB6998556C
:1043180000F07F0313FB09F31F44741C0306A4B2C7
:10432800BFB24FEAC91901D52646ECE7631EBAF1B8
:10433800300F88F8003013D12846D5F81C80FFF7D5
:10434800C5FF08F804002846F41CD5F81C8002367E
:10435800FFF7BCFFB6B2A4B208F80600022300E0DB
:1043680000231B1B9EB2A3199BB29F420BD9284660
:10437800FFF7ACFFB5F85430A34284BFEB6918557A
:104388000134A4B2EFE7B5F85400A0422CBF204690
:104398000020BDE8F087F7B507468E461E461D4645
:1043A800002402A905F07F032144ED0918BF43F05A
:1043B8008003013401F8043CE4B2002DF1D1C4F1CA
:1043C8000403D11802F803E0A54206DA2B1B01A862
:1043D8001344285C58710135F6E7721C22443846AC
:1043E80001F0CBFA054600F079FB013478623444D9
:1043F800A8B2231A5842584103B0F0BD10B5C3699A
:10440800E0221A70C36900225A7004460222C16968
:1044180001F0B3FA204601F09AFC00F05FFB6062FD
:10442800A06210BD0233F0B59BB20D466C1A15F8A8
:10443800016BA4B23EB1B0F854709F4203D95C1C22
:10444800D654A3B2F2E7191B0A44211202F8021C3F
:1044580002F8014C1846F0BD38B5054601F0A3FA3C
:10446800002814BF0124002402D1284601F06FFC63
:10447800204638BD2DE9F04387B0044689461746E3
:104488001E46DDF83880FFF7E7FF0546002840F0B4
:10449800BD80A16C39B90346B4F84C20A16B204605
:1044A80001F0AEFA09E0684601F058F82B46B4F876
:1044B8004C206946204601F0CDFB002800F0A28080
:1044C800012323849DF84C30042B15D1524B1868D6
:1044D8009A88ADF804200090E2699B7900988DF8DD
:1044E8000630531DC2F80500BDF804109DF80620DB
:1044F8009A7199800C2312E0484BD4F81CC01868B4
:1045080059681B7A6A4603C213706B4603CBCCF812
:104518000500CCF8091013788CF80D300E23B8F18B
:10452800000F0AD09DF840209DF83C10520142F03F
:10453800060242EAC102D2B200E002229DF8481007
:1045480009B902F0FD022FB116B942F0800201E06C
:1045580042F0C002E169CA54226DE169581C121286
:104568000A549A1CE169206D88540333E26949466C
:104578002046FFF757FFB8F1000F0BD00346E2695A
:1045880041462046FFF74EFFE2691199034620464F
:10459800FFF748FF67B10346E26939462046FFF74F
:1045A80041FF2EB10346E26931462046FFF73AFF44
:1045B800431F9BB2E26910212046FFF7ECFE00F092
:1045C8008DFA4FF47A766062A062204601F0D6FB3D
:1045D80040B900F083FAA36AC01A236D7343984266
:1045E800F3D90FE069462046FFF77CFE042809D17D
:1045F800E369DE7836B900F071FA0125A06284F823
:104608002C6004E0204601F0A2FB00E000252846CB
:1046180007B0BDE8F08300BFCB650D00D2650D0083
:104628007FB5042305930123049300230393029386
:10463800019300931A46FFF71DFF07B05DF804FBCE
:104648002DE9F14F0D9E9DF828809DF82C509DF87E
:10465800307004468B4691469A46FFF7FDFE0028C7
:104668004CD0B4F85420E069002101F02AFF05235A
:10467800E26959462046FFF7D5FE6B1E012B12D87A
:10468800238CE26901339BB223841B121354411C0F
:1046980089B2E369228C5A54023080B21EB1238C4D
:1046A8005A1C22843380002291B283188A459BB217
:1046B8000AD9B4F854609E4202F1010204D919F8EB
:1046C8000160E169CE54EFE7B8F1000F0CBF30216B
:1046D80031210FB141F00801022D02D141F004014E
:1046E80003E0012D08BF41F00201053BE2699BB2DE
:1046F800204601B0BDE8F04FFFF74DBE01B0BDE860
:10470800F08F1FB5089C0394002402949DF81C4068
:1047180001949DF818400094FFF792FF04B010BD73
:104728007FB5054610460E46144601F00DFF0023DE
:104738000293019300932246034631462846FFF729
:10474800E0FF04B070BD38B504460D46FFF784FE9F
:1047580090B1E36962221A70E36902225A70E36930
:104768002A129A70E369DD700422E169204601F09B
:1047780004F9003018BF012038BD38B504460D468D
:10478800FFF76AFE90B1E36972221A70E3690222A8
:104798005A70E3692A129A70E369DD700422E169AC
:1047A800204601F0EAF8003018BF012038BD2DE995
:1047B800F04F83B000AF0446FFF74EFE8146002855
:1047C80000F0F68000F08AF9226D4FF47A735343B3
:1047D800A26A821A9A42054603D8626A821A9342EA
:1047E80017D294F82C302BB1204601F0B0FA4FF0D4
:1047F8000009DDE0E269C0211170E2695370E169E6
:104808000222204601F0B9F801236562A56284F806
:104818002C30204601F0B2FA002800F0C980F91DBA
:104828002046FFF75FFD0246002800F0C180E369DB
:10483800A562187800F0F00130297DD1D4F830B0A5
:10484800BBF1000F00F0B48097F807C003EB0C0031
:10485800EA46817890F801E001EB0E2E1FFA8EFEF1
:104868000EF1080121F00701ADEB010D68460021AA
:104878008EB2B64506D90CEB01061E44F6784654AE
:104888000131F5E7002100F80E101E7806F0060643
:10489800022E0CF10301CCEB02021ED17144CEEBC7
:1048A800020213F801801944053A497801EB0828F7
:1048B8000CF1050171441944D847E36940221A7084
:1048C800E3695E70E3691FFA88F84FEA28229A7054
:1048D800E369042283F8038020E0042E24D1714484
:1048E800CEEB020213F801801944053A497801EB2E
:1048F80008280CF1050171441944D847E36950228E
:104908001A70E36902225A70E3691FFA88F84FEABD
:1049180028229A70E369324683F80380E1692046C9
:1049280001F02BF8656205E0033A7144CEEB020210
:104938001944D847D5463BE0502908D19978DB7807
:1049480003EB012189B22046FFF7FDFE30E0402944
:104958000CD0602908D19978DB7803EB012189B262
:104968002046FFF70AFF23E070290DD1616BF9B1EA
:10497800042A1DD110F0060F1AD19878DB7803EBC2
:10498800002080B2884713E0902911D0C0290AD1AD
:10499800D0221A70E36900225A70E1690222204687
:1049A80000F0EBFF04E0D02904BF002384F82C308A
:1049B80048460C37BD46BDE8F08F70B504460E4634
:1049C8001546FFF749FDE8B1238C01339BB203B9C3
:1049D80001232384238CE2691B125371E369228C1F
:1049E8009A71E269314607232046FFF71BFDE36908
:1049F8001D54031FE26920469BB28221BDE8704026
:104A0800FFF7C9BC70BD0022FFF7D7BF10B5044639
:104A1800FFF722FD10B12046FFF7F0FCE06908B16E
:104A2800FFF73BFB04F1380000F01DFB2046FFF7C1
:104A3800E5FB204610BD00F011B8000008B5024B98
:104A48001B689B68019308BD6802030008B5024B08
:104A58001B68DB68019308BD6802030008B5024BB8
:104A68001B681B68019308BD2C02030008B5024BA4
:104A78001B689B68019308BD2C02030008B5024B14
:104A88001B68DB68019308BD2C02030008B5024BC4
:104A98001B685B69019308BD2C02030008B5024B33
:104AA8001B68DB69019308BD3002030008B5024B9F
:104AB8001B681B6A019308BD3002030008B5024B4E
:104AC8001B685B69019308BD6C02030008B5024BC3
:104AD8001B685B68019308BD1802030008B5024B08
:104AE8001B685B69019308BD1802030008B5024BF7
:104AF8001B68DB69019308BD1802030008B5024B67
:104B08001B689B6D019308BD1802030008B5024B92
:104B18001B689B68019308BD4802030008B5024B57
:104B28001B681B69019308BD4802030008B5024BC6
:104B38001B685B69019308BD4802030008B5024B76
:104B48001B681B6B019308BD4802030008B5024BA4
:104B58001B685B6C019308BD4802030008B5024B53
:104B68001B685B69019308BD6402030008B5024B2A
:104B78001B681B6A019308BD6402030008B5024B59
:104B88001B689B6A019308BD6402030008B5024BC9
:104B98001B681B68019308BD3C02030008B5024B63
:104BA8001B68DB68019308BD3C02030008B5024B93
:104BB8001B681B69019308BD3C02030008B5024B42
:104BC8001B685B69019308BD3C02030008B5024BF2
:104BD8001B689B69019308BD3C02030008B5024BA2
:104BE8001B68DB69019308BD3C02030008B5024B52
:104BF8001B681B6A019308BD3C02030008B5024B01
:104C08001B689B6A019308BD3C02030008B5024B70
:104C18001B681B6A019308BD2802030008B5024BF4
:104C28001B685B6A019308BD2802030008B5024BA4
:104C38001B689B6A019308BD2802030008B5024B54
:104C48001B68DB6A019308BD2802030008B5024B04
:104C58001B681B6B019308BD2802030008B5024BB3
:104C68001B685B6B019308BD2802030008B5024B63
:104C78001B681B6C019308BD2802030008B5024B92
:104C88001B689B69019308BD3802030008B5024BF5
:104C98001B68DB69019308BD3802030008B5024BA5
:104CA8001B681B6A019308BD3802030008B5024B54
:104CB8001B689B6A019308BD3802030008B5024BC4
:104CC8001B681B6B019308BD3802030008B5024B33
:104CD8001B689B6B019308BD3802030008B5024BA3
:104CE8001B681B68019308BD4C02030008B5024B02
:104CF8001B681B69019308BD4C02030008B5024BF1
:104D08001B685B69019308BD4C02030008B5024BA0
:104D18001B689B69019308BD4C02030008B5024B50
:104D28001B68DB69019308BD4C02030008B5024B00
:104D38001B681B6A019308BD4C02030008B5024BAF
:104D48001B685B68019308BD6002030008B5024B4D
:104D58001B689B68019308BD6002030008B5024BFD
:104D68001B68DB68019308BD6002030008B5024BAD
:104D78001B689B69019308BD6002030008B5024BDC
:104D88001B68DB69019308BD6002030008B5024B8C
:104D98001B681B6D019308BD6002030008B5024B38
:104DA8001B681B68019308BD2002030008B5024B6D
:104DB8001B685B68019308BD2002030008B5024B1D
:104DC8001B689B6D019308BD2002030008B5034BC7
:104DD8001B68D3F88830019308BD00002002030047
:104DE80008B5034B1B68D3F89430019308BD000045
:104DF8002002030008B5024B1B685B68019308BDDD
:104E08004002030008B5024B1B689B68019308BD6C
:104E18004002030008B5024B1B68DB68019308BD1C
:104E28004002030008B5024B1B681B69019308BDCB
:104E38004002030008B5024B1B685B69019308BD7B
:104E48004002030008B5024B1B689B69019308BD2B
:104E58004002030008B5024B1B68DB69019308BDDB
:104E68004002030008B5024B1B681B6A019308BD8A
:104E78004002030008B5024B1B681B6B019308BD79
:104E88004002030008B5024B1B685B6B019308BD29
:104E98004002030008B5024B1B689B68019308BDDC
:104EA8004402030008B5024B1B685B69019308BD07
:104EB8004402030008B5024B1B681B6B019308BD35
:104EC8004402030008B5024B1B68DB6B019308BD65
:104ED8004402030008B5024B1B681B68019308BD18
:104EE8001C02030008B5024B1B685B68019308BDF0
:104EF8001C02030008B5024B1B689B68019308BDA0
:104F08001C02030008B5024B1B68DB6B019308BD4C
:104F18001C020300002211464068FFF7A3BF0022CD
:104F280011464068FFF7AEBF00224068FFF7A2BFF6
:104F3800002281F001014068FFF78CBF00231A4668
:104F480019464068FFF77EBF00231A461946406895
:104F5800FFF770BF002211464068FFF763BF0022C9
:104F680011464068FFF74EBF002202214068FFF754
:104F780051BF00231A464068FFF73CBF024B03228B
:104F88005A60024A1A607047CCE30320E4650D00BA
:104F9800704710B51021044601F01BF9204610BDDA
:104FA80070B5084B0360044600250E4640F80C5FB8
:104FB800FFF7C4FD30462671FFF770FDA560204657
:104FC80070BD00BF18660D000079FFF76FBD0000C7
:104FD800044B00204FF6FF72187058809A80FFF734
:104FE800E5BE00BFD4E303202DE9F041931E232B37
:104FF80015468CB034BF15460A2500230A2D0C46E9
:105008008DF82C3007D1984205DA2D2301F10108DB
:105018000B70404201E0B0B1A0460DF12B0601270C
:105028002A46014601A801F02DFA029B0198092B96
:10503800CCBF3722302252FA83F306F80139013700
:105048000028EDD106E030238DF82B30A0460DF175
:105058002A0602273A46711C404601F027FA2046E4
:105068000CB0BDE8F08110B504460068FFF73AFFC0
:10507800204610BD10B50446006808B1FFF732FF9E
:1050880000232360A360636010BD38B504460D4655
:1050980000680131FFF72EFF10B184E821000120DC
:1050A80038BD10B50368044613B143688B4207D274
:1050B8002046FFF7EAFF20B1A3680BB922681370F6
:1050C800012010BD70B50E46114604461546FFF77F
:1050D800E8FF18B92046FFF7CDFF09E02A46314618
:1050E800A560206801F0E2F92268A3680021D15484
:1050F800204670BD38B500230446036043608360D2
:1051080003730D4639B1084601F01EFA29460246D6
:105118002046FFF7D7FF204638BD38B505460C4670
:1051280041B1084601F010FA214602462846FFF729
:10513800C9FF01E0FFF79EFF284638BD10B50446B9
:1051480000238AB023606360A3602373084601A923
:10515800FFF74AFF01A92046FFF7DFFF20460AB004
:1051680010BD70B504460E4609B9002070BD6AB17D
:105178008368D5182946FFF794FF0028F5D02068E2
:10518800A3683146184401F0D7F9A560012070BD25
:1051980010B58A6809680446FFF7E3FF10B920468E
:1051A800FFF768FF204610BD024800230360FFF7A1
:1051B800CDBC00BFDCE30320F8B506460D468F18CA
:1051C8000024BD420CD0336815F8011B9B6830469B
:1051D8009847002801DB0444F3E7002C08BF044685
:1051E8002046F8BD70B505460C46084649B101F0A1
:1051F800ABF92B68024621462846DB68BDE87040BB
:10520800184770BD03689B68184730B58BB00B46CC
:1052180000218DF82410012A98BF0A220DF12304D9
:10522800B3FBF2F505FB123303F0FF03092B94BF20
:1052380030333733DBB2214604F801392B46002DD1
:10524800EED1FFF7CFFF0BB030BD10B42AB9036819
:105258005DF8044B9B68C9B21847D2B25DF8044B9D
:10526800FFF7D3BFFFF7F1BF014B024A1A6070473F
:10527800E0E30320D5660D0008B50020FFF71AFE0D
:1052880028B1FFF70FFE80F00100C0B208BD012071
:1052980008BD10B50020FFF731FC044668B9FFF7D8
:1052A8007DFD01280BD12046FFF788FD38B9FFF7AF
:1052B800E3FF30B9FFF7EEFDF9E7012010BD00204C
:1052C80010BDFFF7D9FF0020FFF718FC003018BF0A
:1052D800012010BD08B5FFF7DCFFBDE80840FFF767
:1052E80005BC0000024B1A68024B1A60704700BFE9
:1052F80008E30320E4E3032010B58368044613B1F0
:10530800032201469847204610BD10B50446FFF712
:10531800F3FF204610BD10B50446FFF727FD844271
:1053280008D01CB1BDE81040FFF710BDBDE8104023
:10533800FFF714BD10BD70B505460E461446FFF7BD
:1053480015FD50B144EA062040EA0540FFF7F6FC97
:10535800E720BDE87040FFF711BD70BD0348044A5F
:1053680004490023836000F02FBF00BFE8E3032057
:1053780070E3032013530D0008B50C4B33B100F054
:1053880055F903681B699847002809DC084B63B185
:1053980000F0CEF903681B699847002803DC08BDB4
:1053A800AFF30080F2E7AFF3008008BD0000000013
:1053B8000000000008B5FFF7DFFFFFF78FFB014B88
:1053C800186008BD34E7032007B5002300931A4688
:1053D8006FF07701FFF704FD03B05DF804FB0000F0
:1053E80007B543880A2B08D0502B09D1094B1B68F5
:1053F8003BB103B05DF804EB1847FFF7E5FF06E0A3
:10540800002300931A466FF07701FFF7E9FC03B019
:105418005DF804FBF8E3032010B5FFF757FB0446DB
:1054280001F058F8074B13B12046AFF30080002174
:105438000448FFF747FD00210348BDE81040FFF787
:10544800C5BC00BF00000000E9530D00704710B54F
:105458001821044600F0BDFE204610BDF0B5037DBE
:10546800062B8DB00E4600F104074FF0000402D061
:1054780000F1080518E00CAD394605F8304D2F232A
:105488002A460A20FFF76AFB284601F05DF83368D0
:105498000246DB682946304698470FE024B12E21A2
:1054A8003046FFF7AFFE044415F8011D0A223046C6
:1054B800FFF7D8FEBD420444F0D120460DB0F0BD40
:1054C80010B5054B0446112240F8043B002100F0BA
:1054D800F8FF204610BD00BF30670D000346074A9D
:1054E80010B543F8042B01F1100251F8044B43F8AE
:1054F800044B9142F9D10A781A7010BD30670D003B
:10550800037D042B01D1406808E0062B0AD14368CB
:1055180053B1836843B1C36833B10069003018BF21
:1055280001207047002070471846704710B59DF855
:10553800084044EA032343EA024242EA01610423A1
:105548004160037510BD37B50D788B784A78C978F6
:1055580000912946FFF7EAFF03B030BD10B5034BB1
:1055680003600446FFF7EFFF204610BD30670D00CB
:1055780041747047704708B50021007CFFF7C6FBEF
:1055880030EA200028BF4FF0FF3008BD08B50121E0
:10559800007CFFF7BBFB30EA200028BF4FF0FF304C
:1055A80008BD08B5007CFFF7A9FB20EAE07008BD3C
:1055B80008B5007CFFF79AFB20EAE07008BD007C84
:1055C800FFF7B4BB10B51421044600F002FE2046D4
:1055D80010BD38B50446007C0D46FFF78FFB002848
:1055E80001DC607C28B12946207CFFF797FB20EA84
:1055F800E07038BD10B50446002363604FF47A7339
:10560800A360054B23600123084621746374114687
:10561800FFF764FB204610BD44670D0010B5142247
:105628000446002100F04DFF204610BD30B50E4D58
:1056380087B001A8FFF7F2FF296811F0010410D123
:105648002846FEF72CFD60B101AA21460748FFF75E
:10565800D1FF2846FEF728FD054A0649034800F011
:10566800B3FD024807B030BDFCE3032000E403208B
:1056780070E303207D550D0070474174704708B5ED
:10568800007CFFF7BBFA20EAE07008BD08B5007C93
:10569800FFF78CFA20EAE07008BD08B5007CFFF738
:1056A80095FA30EA200028BF4FF0FF3008BD08B552
:1056B800007CFFF783FA30EA200028BF4FF0FF3064
:1056C80008BD007CFFF78ABA10B51421044600F023
:1056D80080FD204610BD70B5457C04460E4625B9B0
:1056E800007CFFF78BFA002805DD3146207CBDE8F9
:1056F8007040FFF753BA284670BD000010B5044645
:1057080008461146002262604FF47A72A260054A88
:1057180022600122207462741A46FFF737FA204685
:1057280010BD00BF74670D00007CFFF75FBA000072
:1057380038B50C4D296811F0010411D12846FEF73F
:10574800AEFC68B1084A094B09482146FFF7D6FF65
:105758002846FEF7A9FC074A0749054800F034FD2A
:10576800034838BDACE40320B0E4032028E4032058
:1057780014E4032070E3032081560D007047F8B548
:10578800064615460C468F18BC4206D0336814F8F6
:10579800011B9B6830469847F6E72846F8BD00226B
:1057A800007CFFF733BA0021007CFFF737BA0021ED
:1057B800007CFFF73BBA0021007CFFF73FBA0021CD
:1057C800007CFFF743BA10B51421044600F001FD30
:1057D800204610BD10B504464FF47A730846A360FE
:1057E8000021044B207461602360FFF73FFA2046D4
:1057F80010BD00BFA4670D000021007CFFF72EBA82
:10580800002211464068FFF72DBB00221146406870
:10581800FFF738BB00224068FFF72CBB002281F05D
:1058280001014068FFF716BB00231A461946406875
:10583800FFF708BB00231A4619464068FFF7FABA73
:10584800002211464068FFF7EDBA00221146406871
:10585800FFF7D8BA002202214068FFF7DBBA00231D
:105868001A464068FFF7C6BA38B5054688B10468D5
:105878004CB1A3681BB1032221462046984710214A
:10588800204600F0A6FC28461421BDE8384000F068
:10589800A0BC38BD10B103685B681847704710B5E5
:1058A80003680446BBB15868FFF730F978B9236834
:1058B8005A7C12B95868FFF731F923685868FFF71E
:1058C80035F920680023236028B1FFF7CDFF206851
:1058D80008B1FFF7C9FF204610BD000038B50C4BD2
:1058E80003600446D0F8CC0108B1FEF7D6FBD4F823
:1058F800C45135B12846FFF7D2FF0421284600F0ED
:1059080068FCA06808B1FFF7C5FF204638BD00BF96
:10591800CC670D0038B50D4C0D4B236000250223D4
:1059280004F5E4706360A560C4F8C451C4F8C851B4
:10593800FFF70CF9074BC4F8CC5123602046064A00
:105948000649BDE8384000F03FBC00BF34E50320FD
:10595800B4680D00CC670D0070E30320E5580D0016
:1059680037B502AC036804F8011DDD6B01224FF066
:10597800FF332146A84703B030BD10B40368DC6B81
:105988004FF0FF33A4465DF8044B604737B502ACCF
:10599800036804F8011DDD6B214613460122A84760
:1059A80003B030BD704738B543691A68002A044609
:1059B80005DAB3F88620B3F884309A4201D001257D
:1059C8000BE003681B699847002814BF01250025D0
:1059D80003D123682046DB6A9847284638BD4369C7
:1059E8001868C043C00F704770470020704710B553
:1059F8001421044600F0EDFB204610BDFEF74BBB1A
:105A08002DE9F0439846036893B0DB6A0C460646D6
:105A18001746984712AB002543F8485D2A462946A1
:105A28002046FFF713F800283ADB009B002B39D0FB
:105A38005B69002B36D006A8FFF742FD009B5C6926
:105A48006378022B01D1211D13E00A2B14D11122F6
:105A5800294601A800F035FDA36833BBE36823BBE2
:105A68004FF6FF702569FFF781F885421DD104F1D3
:105A7800140106A8FFF767FD06A8FFF741FD88B1E6
:105A8800336807ADD3F82090184B0C930FCD0DACAD
:105A98000FC42B6823703A4643460CA93046C847C2
:105AA80004461CE04FF0FF3419E004F1080301AD8F
:105AB8001834186859682A4603C20833A3421546A1
:105AC800F7D1062301A90CA80DAD8DF81430FFF706
:105AD80005FD0FCD07AC0FC42B682370CCE70098E9
:105AE800FEF7ACFF204613B0BDE8F08330670D0029
:105AF8007FB5164600224260029203925A1C044661
:105B08000D4608D04FF47A72B3FBF2F1029102FB12
:105B180011314A43039260690823009341F2050258
:105B28006B4440F6FF710068FFF7A8F8002808DB0F
:105B380060690023324629460068FFF7BFF800284D
:105B480004DAFFF7DFF903686360002004B070BD72
:105B580010B5036804469B689847A368013BA36097
:105B68002BB923682046DB68BDE81040184710BDF4
:105B780070B504464D69054B44F8043B8C35064620
:105B88000FCD0FC42B682370304670BD30670D00F1
:105B980010B54369B3F88620B3F884309A420446B6
:105BA80005D06269B2F884301344187910BD0368CF
:105BB8001B6998470028F4D14FF0FF3010BD10B58D
:105BC8004369B3F88620B3F884309A42044608D073
:105BD8006269B2F88430591C1344A2F88410187909
:105BE80010BD03681B6998470028F1D14FF0FF30BA
:105BF80010BDF8B543691746B3F88620B3F884306A
:105C08009A4205460E4606D103681B69984710B9A3
:105C18004FF0FF3414E06969B1F88430B1F8864078
:105C2800E41ABC4228BF3C46194422460431304697
:105C380000F03CFC6A69B2F884302344A2F884304E
:105C48002046F8BD42690023A2F884304269A2F8D0
:105C5800863070472DE9F041984603680D468AB0B2
:105C6800DB6A0646174698472B7D7469042B0CBFE0
:105C780002200A2006220121FFF728F82060736914
:105C88001C68002C5BDB3046FFF7DCFFB8F1000F27
:105C980017D0002303A95FFA88F00393ADF81030FA
:105CA800FEF70CFF002849DB70690623009341F2D8
:105CB8000B0203AB40F6FF710068FEF7DFFF002818
:105CC8003CDB1C242246002103A800F0FAFB2B7DB4
:105CD8008DF80C40042B0CD1022338468DF80D307A
:105CE800FEF74CFFADF80E006868FEF73FFF049022
:105CF80013E00A2338468DF80D30FEF73FFF05AC58
:105D0800ADF80E002B1D05F11407186859682246D6
:105D180003C20833BB421446F7D173691C2203A996
:105D28001868FEF7BBFF002808DB2C1D0FCC76692E
:105D38008C360FC623683370012404E004463368A8
:105D48003046DB6A984720460AB0BDE8F08110B5B6
:105D5800436904461868002801DBFEF797FF63696A
:105D68004FF0FF321A606069112200218C3000F078
:105D7800A8FB2046BDE81040FFF764BF30B5426974
:105D8800B2F886308BB004461BB1B2F884209A4230
:105D980040D06369186800283FDBB3F886507F2D30
:105DA8003BD8191DC5F1800208232944FEF77EFF60
:105DB80000280CDD6369B3F886200AB9A3F88420AB
:105DC8006269B2F886301844A2F8860025E0FFF729
:105DD80099F803680B2B20D0FFF794F803680B2B76
:105DE8001BD02023002502930395FFF78BF8036847
:105DF80001930E4B009302AA2B460D493220FEF761
:105E0800C5FF63691868FEF741FF63694FF0FF3209
:105E18001A6002E0FFF716FFBBE76269B2F8863046
:105E2800B2F88400181A0BB030BD00BF67680D00C7
:105E380060680D0010B5002304460160A0F88430A6
:105E4800A0F886308830FFF73BFB204610BD0000E5
:105E58004FF47A7270B500238260144A436002607E
:105E6800436183610446A0200E46FEF710F90546FB
:105E780010B13146FFF7DEFF1420FEF708F903469C
:105E880028B1012242608260094A02600561A06966
:105E98006561A36128B14368013B43600BB9FFF713
:105EA80057FE2046FFF7CEFE204670BD1C680D0049
:105EB80000680D0010B54FF0FF310446FFF7C8FF2A
:105EC800204610BD10B504460068002801DBFEF727
:105ED800DDFE204610BD10B504692046FFF7F2FF2D
:105EE80024B12046BDE81040FEF7D5B810BD002209
:105EF80011464068FEF796BF002211464068FEF73B
:105F0800B1BF002211464068FEF7BCBF00224068BE
:105F1800FEF7B0BF002281F001014068FEF79ABF8A
:105F280000231A4619464068FEF78CBF00231A461C
:105F380019464068FEF77EBF002211464068FEF70A
:105F480061BF002202214068FEF764BF00231A46A1
:105F58004068FEF74FBF0000024B04225A60024A15
:105F68001A60704704E7032080680D0000231A4672
:105F78004068FEF73FBF002202214068FEF74ABF93
:105F8800002211464068FEF73DBF002211464068D6
:105F9800FEF748BF00231A4619464068FEF74ABF75
:105FA80000231A4619464068FEF74CBF002281F0CC
:105FB80001014068FEF74EBF00224068FEF75ABF55
:105FC800002211464068FEF75DBF00221146406876
:105FD800FEF748BF2DE9F043002495B016460D465C
:105FE8000746FFF76DFA214620220CA8009400F01E
:105FF80068FA40230C9321466B460CAA3046FEF7FC
:1060080025FD0446002844D1024601216868FEF7B0
:1060180009FF0221804622466868FEF703FF009EBA
:1060280081462146002E34D0002932D17368022BD4
:1060380002D00A2B09D02AE0B8F1000F27D07169E5
:1060480038460431FFF77FFA20E0B9F1000F1ED07F
:106058007469112201A800F034FA06238DF814306F
:1060680001AD04F108031834186859682A4603C2B8
:106078000833A3421546F7D101A906A807ADFFF7D3
:106088002DFA0FCD3C1D0FC42B6823700121F66932
:10609800C8E70098FEF7D2FC384615B0BDE8F08393
:1060A800024B034A1A6000225A6070470CE703202B
:1060B800B4680D0010B504460F48FEF785FF28B1F7
:1060C800A4F10B03022B01D8002010BD00F05CF8EE
:1060D800FFF792FB08B1012CF6D9FFF729FBFFF770
:1060E80023FB18B1A4F10903012BEDD9232C8CBF94
:1060F8000020012010BD00BF14E70320232838B575
:1061080004460D460AD8FF2908D0FFF7D3FF28B167
:1061180029462046BDE83840FEF7A8BC38BD10B572
:106128000446FEF7ABFC0438C0B2012808D9204663
:10613800FFF7C0FF20B12046BDE81040FEF7A6BC1F
:10614800002010BD70B50C4C0C4E0D4D00212046A2
:10615800FEF726FF20460B4C3246294600F034F85D
:1061680001212046FEF71CFF324629462046BDE89D
:10617800704000F029B800BF14E7032070E3032043
:10618800994F0D0024E7032038B50B4D296811F00D
:1061980001040FD12846FDF782FF58B12146074870
:1061A800FFF718FB2846FDF77FFF054A0549034816
:1061B80000F00AF8014838BD38E703203CE703201F
:1061C80070E3032085570D000B460146184600F082
:1061D8004BB9FDF760BF0000184B1A68D1075CBFC8
:1061E80001221A60164B1A68D2075CBF01221A6096
:1061F800144B1A68D0075CBF01221A60124B1A6848
:10620800D1075CBF01221A60104B1A68D2075CBF25
:1062180001221A600E4B1A68D0075CBF01221A606F
:106228000C4B1A68D1075CBF01221A600A4B1A6826
:10623800D2075CBF01221A60704700BF6CE70320D9
:1062480068E7032064E7032060E703205CE7032096
:1062580058E7032054E7032050E70320244B1A682B
:10626800D0075CBF01221A60224B1A68D1075CBFB5
:1062780001221A60204B1A68D2075CBF01221A60FB
:106288001E4B1A68D0075CBF01221A601C4B1A68A3
:10629800D1075CBF01221A601A4B1A68D2075CBF8B
:1062A80001221A60184B1A68D0075CBF01221A60D5
:1062B800164B1A68D1075CBF01221A60144B1A6882
:1062C800D2075CBF01221A60124B1A68D0075CBF64
:1062D80001221A60104B1A68D1075CBF01221A60AC
:1062E8000E4B1A68D2075CBF01221A60704700BFC4
:1062F8009CE7032098E7032094E7032090E7032016
:106308008CE7032088E7032084E7032080E7032045
:106318007CE7032078E7032074E7032070E7032075
:10632800244B1A68D0075CBF01221A60224B1A68F6
:10633800D1075CBF01221A60204B1A68D2075CBFE4
:1063480001221A601E4B1A68D0075CBF01221A602E
:106358001C4B1A68D1075CBF01221A601A4B1A68D5
:10636800D2075CBF01221A60184B1A68D0075CBFBD
:1063780001221A60164B1A68D1075CBF01221A6005
:10638800144B1A68D2075CBF01221A60124B1A68B4
:10639800D0075CBF01221A60104B1A68D1075CBF96
:1063A80001221A600E4B1A68D2075CBF01221A60DC
:1063B800704700BFCCE70320C8E70320C4E70320E9
:1063C800C0E70320BCE70320B8E70320B4E70320B5
:1063D800B0E70320ACE70320A8E70320A4E70320E5
:1063E800A0E70320184B1A68D1075CBF01221A6086
:1063F800164B1A68D2075CBF01221A60144B1A6840
:10640800D0075CBF01221A60124B1A68D1075CBF23
:1064180001221A60104B1A68D2075CBF01221A6069
:106428000E4B1A68D0075CBF01221A600C4B1A6821
:10643800D1075CBF01221A600A4B1A68D2075CBFF9
:1064480001221A60704700BFECE70320E8E7032049
:10645800E4E70320E0E70320DCE70320D8E7032094
:10646800D4E70320D0E7032010B5054C13462CB120
:106478000A4601460220AFF3008010BD204610BD39
:1064880000000000002910B591FBF2F402FB141380
:1064980004DB002B07DA01349B1A04E0002BC4BF8D
:1064A80004F1FF349B180460436010BD10B5431E0F
:1064B8000A44914204D011F8014B03F8014FF8E760
:1064C80010BD02440346934202D003F8011BFAE7C9
:1064D8007047000038B5124B1C68A36B0546D3B94A
:1064E8001820FEF7F7FC43F20E33A06303804AF648
:1064F800CD33438041F2342383804EF26D63C380F1
:106508004DF6EC630381052343810B23838101222C
:106518000023C0E90423A36B00221D615A6138BD22
:106528006CE3032010F8012B11F8013B012A28BF66
:106538009A42F7D0D01A7047034611F8012B03F896
:10654800012B002AF9D17047034613F8012B002AC2
:10655800FBD1181A013870471D400D0059400D0035
:1065680085400D0089400D000000000052454400A0
:10657800475245454E00424C554500737061726B59
:10658800636C69656E745F0068656C6C6F00746F2E
:1065980064644172676F6E2F6D6573736167650020
:1065A800646F776E6C6F61646D6F726572616D2E6A
:1065B800636F6D006C61622E74686577636C2E631F
:1065C8006F6D0000044D5154540400064D51497339
:1065D8006470030000000000000000007B4F0D0005
:1065E800714F0D00674F0D005D4F0D00514F0D00AD
:1065F800454F0D00394F0D00314F0D00274F0D004D
:106608001D4F0D00DD5F0D000000000000000000C0
:10661800994F0D009B4F0D0066006C6E00666E0072
:10662800636F64650064657461696C000D0A002518
:106638003031307520005D20002C200028293A20B8
:1066480000205B00636F6465203D200025690064BD
:10665800657461696C73203D200062617564005344
:10666800657269616C0053657269616C3100747997
:10667800706500706172616D00636D64006964002B
:10668800686E64007374726D0066696C74006C7671
:106698006C0061646448616E646C65720072656D5B
:1066A8006F766548616E646C657200656E756D48DD
:1066B800616E646C657273004A534F4E5374726511
:1066C800616D4C6F6748616E646C657200617070D3
:1066D800006E6F6E6500747261636500696E666F47
:1066E800007761726E006572726F720070616E6918
:1066F8006300616C6C005A00252B3033643A2530F6
:1067080032750025592D256D2D25645425483A25C7
:106718004D3A2553257A0061736374696D650000ED
:10672800000000000000000065540D0055540D00E5
:1067380057540D0000000000000000007D550D00BA
:10674800CD550D00DB550D00C1510D00B9550D009B
:106758007F550D0095550D00C7550D00AB550D0023
:1067680079550D00000000000000000081560D0062
:10677800D1560D00DF560D00C1510D0095560D0084
:10678800B7560D00A3560D00CB560D0083560D00CD
:1067980087560D00000000000000000085570D001E
:1067A800CF570D00A7570D0087570D00AF570D00A5
:1067B800B7570D00BF570D00C7570D000000000068
:1067C8000000000067580D005D580D0053580D007B
:1067D80049580D003D580D0031580D0025580D0041
:1067E8001D580D0013580D0009580D00DD5F0D00F0
:1067F8000000000000000000F1590D00F7590D00DD
:10680800DF5E0D00055A0D00F3590D000000000071
:106818000000000005420D0039420D0069590D00C5
:1068280083590D00855D0D00C75B0D00995B0D0058
:10683800AD590D005D5C0D00095A0D00FB5B0D00A4
:10684800575D0D00AF590D00E7590D0095590D0022
:10685800F95A0D00795B0D00776972696E670072ED
:10686800656376206572726F72203D202564000092
:106878000000000000000000555F0D004B5F0D0098
:10688800415F0D00F75E0D00355F0D00295F0D00BB
:106898001D5F0D00155F0D000B5F0D00015F0D0002
:1068A800DD5F0D000000000000000000755F0D00B6
:1068B8007F5F0D00895F0D00935F0D009D5F0D00E8
:1068C800A95F0D00B55F0D00C15F0D00C95F0D0028
:1068D800D35F0D00DD5F0D00000000000000000028
:1068E80000000000000000000000000000000000A0
:1068F8000000000000000000000000000000000090
:10690800000000000000000000000000000000007F
:10691800000000000000000000000000000000006F
:10692800000000000000000000000000000000005F
:10693800000000000000000043000000CD410D00F1
:106948003F4A0D00854F0D00D94F0D00B1510D0084
:1069580071520D00ED520D0065530D001D590D00CB
:10696800615F0D00A9600D004D610D00E1610D0032
:1069780065620D0029630D00ED630D000000000045
:08698800000000000000000007
:106990001F670D0000000000E0680D0000690D0099
:1069A00020690D0000000000000000000000000051
:1069B0000000000040690D00000000000000000021
:1069C00000000000000000000000000000000000C7
:1069D00000000000000000000000000000000000B7
:1069E00000000000000000000000000000000000A7
:0869F000000000000CE303208D
:1069F800FFFFFFFF00000102030405060708090A5C
:106A08000B0C0D0E0F101112131415161718191A56
:086A18001B1C1D1E1F2028009D
:046A2000785634125E
:04000003D0004018D1
:00000001FF
