:02000002D0002C
:1040000000400D0080570D00000006000C00050167
:08401000040115050000000089
:10401800A8530D0009480A49884208B505D0094A3D
:10402800824202D0121A01F077F90748074A0021A4
:10403800121A01F07CF9014808BD00BF58E30320BB
:10404800F0560D00C0E30320C0E30320F0E703208F
:1040580070B500F00DFC074C074BE41AA4080025C6
:104068001E46A54204D056F8253098470135F8E792
:1040780070BD00BFEC560D00B0560D0000F014B82E
:1040880008B500F033F8BDE8084000F0BFBB00F009
:1040980051BA00F04FBA0078B0FA80F04009704782
:1040A800012303707047000010B50E4C0021204614
:1040B80000F0A2FA2046012100F0A4FA0A4A1421CD
:1040C800204600F0BBFA2046002100F09EFA0121AC
:1040D800082000F057FF01210420BDE8104000F03F
:1040E80051BF00BF14E7032040420F0010B5012163
:1040F800184C082000F057FF0021042000F053FF5F
:104108000121204600F0BCFA4FF4FA7000F040FBA1
:104118000021204600F0B4FA4FF4FA7000F038FBA2
:104128000021082000F03FFF0121042000F03BFFA0
:104138000121204600F0A4FA4FF4FA7000F028FBA1
:104148002046002100F09CFA4FF4FA70BDE81040B8
:1041580000F01EBB14E7032008B500F01FF8064B5B
:1041680000221A705A804FF6FF729A800320BDE829
:10417800084000F05BB900BFC4E3032008B5024B58
:104188001B689B68019308BD6802030008B5024BD1
:104198001B68DB68019308BD6802030008B5024B81
:1041A8001B681B68019308BD2C02030008B5024B6D
:1041B8001B689B68019308BD2C02030008B5024BDD
:1041C8001B68DB68019308BD2C02030008B5024B8D
:1041D8001B681B69019308BD2C02030008B5024B3C
:1041E8001B681B68019308BD3002030008B5024B29
:1041F8001B689B68019308BD3002030008B5024B99
:104208001B68DB68019308BD3002030008B5024B48
:104218001B681B69019308BD3002030008B5024BF7
:104228001B685B69019308BD3002030008B5024BA7
:104238001B68DB69019308BD3002030008B5024B17
:104248001B681B6A019308BD3002030008B5024BC6
:104258001B685B6A019308BD3002030008B5024B76
:104268001B685B68019308BD1802030008B5024B80
:104278001B685B69019308BD1802030008B5024B6F
:104288001B689B68019308BD4802030008B5024BF0
:104298001B681B69019308BD4802030008B5024B5F
:1042A8001B685B69019308BD4802030008B5024B0F
:1042B8001B681B6B019308BD4802030008B5024B3D
:1042C8001B685B6C019308BD4802030008B5024BEC
:1042D8001B685B69019308BD6402030008B5024BC3
:1042E8001B681B68019308BD3C02030008B5024B1C
:1042F8001B68DB68019308BD3C02030008B5024B4C
:104308001B681B69019308BD3C02030008B5024BFA
:104318001B685B69019308BD3C02030008B5024BAA
:104328001B689B69019308BD3C02030008B5024B5A
:104338001B68DB69019308BD3C02030008B5024B0A
:104348001B681B6A019308BD3C02030008B5024BB9
:104358001B689B6A019308BD3C02030008B5024B29
:104368001B681B6A019308BD2802030008B5024BAD
:104378001B685B6A019308BD2802030008B5024B5D
:104388001B689B6A019308BD2802030008B5024B0D
:104398001B68DB6A019308BD2802030008B5024BBD
:1043A8001B681B6B019308BD2802030008B5024B6C
:1043B8001B685B6B019308BD2802030008B5024B1C
:1043C8001B681B6C019308BD2802030008B5024B4B
:1043D8001B681B68019308BD4C02030008B5024B1B
:1043E8001B681B69019308BD4C02030008B5024B0A
:1043F8001B685B69019308BD4C02030008B5024BBA
:104408001B689B69019308BD4C02030008B5024B69
:104418001B68DB69019308BD4C02030008B5024B19
:104428001B681B6A019308BD4C02030008B5024BC8
:104438001B685B68019308BD2002030008B5024BA6
:104448001B685B69019308BD2002030008B5034B94
:104458001B68D3F88830019308BD000020020300D0
:1044680008B5034B1B68D3F89430019308BD0000CE
:104478002002030008B5024B1B685B68019308BD66
:104488004002030008B5024B1B689B68019308BDF6
:104498004002030008B5024B1B68DB68019308BDA6
:1044A8004002030008B5024B1B681B69019308BD55
:1044B8004002030008B5024B1B685B69019308BD05
:1044C8004002030008B5024B1B689B69019308BDB5
:1044D8004002030008B5024B1B68DB69019308BD65
:1044E8004002030008B5024B1B681B6A019308BD14
:1044F8004002030008B5024B1B681B6B019308BD03
:104508004002030008B5024B1B685B6B019308BDB2
:104518004002030008B5024B1B68DB6B019308BD22
:104528004402030008B5024B1B681B68019308BDD1
:104538001C02030008B5024B1B685B68019308BDA9
:104548001C020300002211464068FFF7CBBF00227F
:1045580011464068FFF7D6BF00224068FFF7CABF80
:10456800002281F001014068FFF7B4BF00231A461A
:1045780019464068FFF7A6BF00231A461946406847
:10458800FFF798BF002211464068FFF78BBF002253
:1045980011464068FFF776BF002202214068FFF706
:1045A80079BF00231A464068FFF764BF024B032215
:1045B8005A60024A1A607047CCE30320C4530D00C6
:1045C800704710B51021044600F04DFD204610BD7F
:1045D80070B5084B0360044600250E4640F80C5F92
:1045E800FFF764FE30462671FFF720FEA5602046DF
:1045F80070BD00BFF8530D00232902D80079FFF7DA
:10460800EDBD70470079FFF7F1BD0079FFF7F6BD02
:10461800400830B51860002418688842E5B206D909
:104628000134082C02D040081860F5E70725024B32
:104638005B5D137030BD00BF00540D0070B588B0CD
:10464800067902FB01F504461422002103A800F0B4
:104658006EFE0B2303A930460022ADF80C30FFF79D
:10466800F5FD02AB0DF1070229460498FFF7D0FFCC
:1046780020799DF80710FFF7C9FD029808B070BDB2
:1046880008B50079FFF7CAFDC0B208BD0079FFF789
:10469800D5BD0000044B00204FF6FF7218705880FB
:1046A8009A80FFF7C3BE00BFD4E30320024800236B
:1046B8000360FFF703BE00BFDCE30320F8B506463E
:1046C8000D468F180024BD420CD0336815F8011B25
:1046D8009B6830469847002801DB0444F3E7002C28
:1046E80008BF04462046F8BD70B505460C46084686
:1046F80049B100F04DFE2B68024621462846DB688A
:10470800BDE87040184770BD03689B68184730B50E
:104718008BB00B4600218DF82410012A98BF0A227D
:104728000DF12304B3FBF2F505FB123303F0FF038D
:10473800092B94BF30333733DBB2214604F80139F3
:104748002B46002DEED1FFF7CFFF0BB030BD10B4D4
:104758002AB903685DF8044B9B68C9B21847D2B2FE
:104768005DF8044BFFF7D3BFFFF7F1BF014B024AD7
:104778001A607047E0E30320C0540D00024B1A682A
:10478800024B1A60704700BF58E30320E4E303209C
:104798000021FFF753BE10B58368044613B1032206
:1047A80001469847204610BD10B50446FFF7F3FFB1
:1047B800204610BD0348044A04490023836000F0E2
:1047C8004DBC00BFE8E30320C0E30320B1470D0060
:1047D80008B50C4B33B100F035F903681B699847ED
:1047E800002809DC084B63B100F0AEF903681B69C7
:1047F8009847002803DC08BDAFF30080F2E7AFF369
:10480800008008BD000000000000000008B5FFF7A8
:10481800DFFFFFF72BFD014B186008BD34E70320CD
:1048280007B5002300931A466FF07701FFF718FECB
:1048380003B05DF804FB000007B543880A2B08D0D5
:10484800502B09D1094B1B683BB103B05DF804EB51
:104858001847FFF7E5FF06E0002300931A466FF0BC
:104868007701FFF7FDFD03B05DF804FBF8E30320D3
:1048780010B5FFF7F3FC044600F062FD074B13B1D7
:104888002046AFF3008000210448FFF743FE0021D3
:104898000348BDE81040FFF7D9BD00BF0000000085
:1048A80041480D00704710B51821044600F0DBFBA5
:1048B800204610BDF0B5037D062B8DB00E4600F1E5
:1048C80004074FF0000402D000F1080518E00CAD11
:1048D800394605F8304D2F232A460A20FFF7F6FC03
:1048E800284600F055FD33680246DB682946304605
:1048F80098470FE024B12E213046FFF705FF044406
:1049080015F8011D0A223046FFF72EFFBD42044468
:10491800F0D120460DB0F0BD10B5054B044611226C
:1049280040F8043B002100F002FD204610BD00BF06
:104938001C550D000346074A10B543F8042B01F136
:10494800100251F8044B43F8044B9142F9D10A780C
:104958001A7010BD1C550D0010B59DF8084044EAAA
:10496800032343EA024242EA0161042341600375DA
:1049780010BD37B50D788B784A78C97800912946EB
:10498800FFF7EAFF03B030BD41747047704708B5C0
:104998000021007CFFF732FD30EA200028BF4FF0ED
:1049A800FF3008BD08B50121007CFFF727FD30EA7C
:1049B800200028BF4FF0FF3008BD08B5007CFFF786
:1049C80015FD20EAE07008BD08B5007CFFF706FD7C
:1049D80020EAE07008BD007CFFF720BD10B5142167
:1049E800044600F040FB204610BD38B50446007C64
:1049F8000D46FFF7FBFC002801DC607C28B1294646
:104A0800207CFFF703FD20EAE07038BD10B50446AE
:104A1800002363604FF47A73A360054B236001237E
:104A28000846217463741146FFF7D0FC204610BD78
:104A380030550D0010B514220446002100F077FC13
:104A4800204610BD30B50E4D87B001A8FFF7F2FF24
:104A5800296811F0010410D12846FFF71CFB60B14A
:104A680001AA21460748FFF7D1FF2846FFF718FBA0
:104A7800054A0649034800F0F1FA024807B030BD7C
:104A8800FCE3032000E40320C0E3032095490D0064
:104A980070474174704708B5007CFFF757FC20EA5F
:104AA800E07008BD08B5007CFFF728FC20EAE0703C
:104AB80008BD08B5007CFFF731FC30EA200028BFAC
:104AC8004FF0FF3008BD08B5007CFFF71FFC30EA47
:104AD800200028BF4FF0FF3008BD007CFFF726BC40
:104AE80010B51421044600F0BEFA204610BD70B57A
:104AF800457C04460E4625B9007CFFF727FC0028B4
:104B080005DD3146207CBDE87040FFF7EFBB284645
:104B180070BD000010B504460846114600226260C8
:104B28004FF47A72A260054A2260012220746274EE
:104B38001A46FFF7D3FB204610BD00BF60550D0095
:104B4800007CFFF7FBBB000038B50C4D296811F05D
:104B5800010411D12846FFF79EFA68B1084A094BAB
:104B680009482146FFF7D6FF2846FFF799FA074A72
:104B78000749054800F072FA034838BDACE4032041
:104B8800B0E4032028E4032014E40320C0E3032056
:104B9800994A0D007047F8B5064615460C468F1819
:104BA800BC4206D0336814F8011B9B68304698470E
:104BB800F6E72846F8BD0022007CFFF7CFBB0021AE
:104BC800007CFFF7D3BB0021007CFFF7D7BB002197
:104BD800007CFFF7DBBB0021007CFFF7DFBB10B5D3
:104BE8001421044600F03FFA204610BD10B50446D3
:104BF8004FF47A730846A3600021044B2074616067
:104C08002360FFF7DBFB204610BD00BF90550D0069
:104C18000021007CFFF7CABB002211464068FFF75D
:104C280061BC002211464068FFF76CBC0022406856
:104C3800FFF760BC002281F001014068FFF74ABC21
:104C480000231A4619464068FFF73CBC00231A4661
:104C580019464068FFF72EBC002211464068FFF74E
:104C680021BC002211464068FFF70CBC002202213B
:104C78004068FFF70FBC00231A464068FFF7FABBED
:104C880038B5054688B104684CB1A3681BB1032246
:104C98002146204698471021204600F0E4F928468E
:104CA8001421BDE8384000F0DEB938BD10B1036802
:104CB8005B681847704710B503680446BBB158686D
:104CC800FFF7DCFA78B923685A7C12B95868FFF7FD
:104CD800DDFA23685868FFF7E1FA206800232360AB
:104CE80028B1FFF7CDFF206808B1FFF7C9FF2046BC
:104CF80010BD000038B50C4B03600446D0F8CC0159
:104D080008B1FFF7C6F9D4F8C45135B12846FFF702
:104D1800D2FF0421284600F0A6F9A06808B1FFF7E1
:104D2800C5FF204638BD00BFB8550D0038B50D4C3D
:104D38000D4B23600025022304F5E4706360A56031
:104D4800C4F8C451C4F8C851FFF7B8FA074BC4F8FF
:104D5800CC5123602046064A0649BDE8384000F099
:104D68007DB900BF34E5032020560D00B8550D006D
:104D7800C0E30320FD4C0D00002211464068FFF7F8
:104D880091BB002211464068FFF7ACBB00221146D8
:104D98004068FFF7B7BB00224068FFF7ABBB0022B3
:104DA80081F001014068FFF795BB00231A461946B8
:104DB8004068FFF787BB00231A4619464068FFF78B
:104DC80079BB002211464068FFF75CBB0022022134
:104DD8004068FFF75FBB00231A464068FFF74ABBED
:104DE800024B04225A60024A1A60704704E7032003
:104DF800EC550D0000231A464068FFF73BBB002224
:104E080002214068FFF746BB002211464068FFF7C1
:104E180039BB002211464068FFF744BB00231A46FD
:104E280019464068FFF746BB00231A4619464068F2
:104E3800FFF748BB002281F001014068FFF74ABB39
:104E480000224068FFF756BB002211464068FFF772
:104E580059BB002211464068FFF744BB2DE9F043D7
:104E6800002495B016460D460746FFF755FD214626
:104E780020220CA8009400F05AFA40230C932146F3
:104E88006B460CAA3046FFF781F90446002844D146
:104E9800024601216868FFF705FB02218046224689
:104EA8006868FFF7FFFA009E81462146002E34D03D
:104EB800002932D17368022B02D00A2B09D02AE0CC
:104EC800B8F1000F27D0716938460431FFF751FD5A
:104ED80020E0B9F1000F1ED07469112201A800F07A
:104EE80026FA06238DF8143001AD04F108031834AE
:104EF800186859682A4603C20833A3421546F7D1F1
:104F080001A906A807ADFFF715FD0FCD3C1D0FC47D
:104F18002B6823700121F669C8E70098FFF72EF97E
:104F2800384615B0BDE8F083024B034A1A600022E8
:104F38005A6070470CE7032020560D0010B5044650
:104F48000F48FFF7A3FB28B1A4F10B03022B01D8EC
:104F5800002010BD00F062F8FFF75AFE08B1012CDE
:104F6800F6D9FFF7F1FDFFF7EBFD18B1A4F109033E
:104F7800012BEDD9232C8CBF0020012010BD00BFD0
:104F880014E70320232838B504460D460AD8FF291C
:104F980008D0FFF7D3FF28B129462046BDE838409E
:104FA800FFF704B938BD38B504460D46FFF706F9D2
:104FB800FF2810D0062804D84D2323FA00F0C30791
:104FC80009D42046FFF7BAFF28B129462046BDE894
:104FD8003840FFF7FBB838BD70B50C4C0C4E0D4D82
:104FE80000212046FFF7F4FA20460B4C32462946AA
:104FF80000F034F801212046FFF7EAFA3246294644
:105008002046BDE8704000F029B800BF14E703202F
:10501800C0E30320C9450D0024E7032038B50B4D34
:10502800296811F001040FD12846FFF734F858B168
:1050380021460748FFF7DAFD2846FFF731F8054A09
:105048000549034800F00AF8014838BD38E703204D
:105058003CE70320C0E303209D4B0D000B460146AF
:10506800184600F04BB9FFF712B80000184B1A6841
:10507800D1075CBF01221A60164B1A68D2075CBFC1
:1050880001221A60144B1A68D0075CBF01221A600B
:10509800124B1A68D1075CBF01221A60104B1A68BC
:1050A800D2075CBF01221A600E4B1A68D0075CBF9A
:1050B80001221A600C4B1A68D1075CBF01221A60E2
:1050C8000A4B1A68D2075CBF01221A60704700BFFA
:1050D8006CE7032068E7032064E7032060E7032008
:1050E8005CE7032058E7032054E7032050E7032038
:1050F800244B1A68D0075CBF01221A60224B1A6839
:10510800D1075CBF01221A60204B1A68D2075CBF26
:1051180001221A601E4B1A68D0075CBF01221A6070
:105128001C4B1A68D1075CBF01221A601A4B1A6817
:10513800D2075CBF01221A60184B1A68D0075CBFFF
:1051480001221A60164B1A68D1075CBF01221A6047
:10515800144B1A68D2075CBF01221A60124B1A68F6
:10516800D0075CBF01221A60104B1A68D1075CBFD8
:1051780001221A600E4B1A68D2075CBF01221A601E
:10518800704700BF9CE7032098E7032094E70320BB
:1051980090E703208CE7032088E7032084E70320B7
:1051A80080E703207CE7032078E7032074E70320E7
:1051B80070E70320244B1A68D0075CBF01221A60ED
:1051C800224B1A68D1075CBF01221A60204B1A686B
:1051D800D2075CBF01221A601E4B1A68D0075CBF59
:1051E80001221A601C4B1A68D1075CBF01221A60A1
:1051F8001A4B1A68D2075CBF01221A60184B1A684A
:10520800D0075CBF01221A60164B1A68D1075CBF31
:1052180001221A60144B1A68D2075CBF01221A6077
:10522800124B1A68D0075CBF01221A60104B1A682B
:10523800D1075CBF01221A600E4B1A68D2075CBF07
:1052480001221A60704700BFCCE70320C8E703209B
:10525800C4E70320C0E70320BCE70320B8E7032026
:10526800B4E70320B0E70320ACE70320A8E7032056
:10527800A4E70320A0E70320184B1A68D1075CBFF6
:1052880001221A60164B1A68D2075CBF01221A6005
:10529800144B1A68D0075CBF01221A60124B1A68B7
:1052A800D1075CBF01221A60104B1A68D2075CBF95
:1052B80001221A600E4B1A68D0075CBF01221A60DF
:1052C8000C4B1A68D1075CBF01221A600A4B1A6896
:1052D800D2075CBF01221A60704700BFECE70320C9
:1052E800E8E70320E4E70320E0E70320DCE7032006
:1052F800D8E70320D4E70320D0E7032010B5054CF6
:1053080013462CB10A4601460220AFF3008010BDB7
:10531800204610BD0000000010B5431E0A4491420B
:1053280004D011F8014B03F8014FF8E710BD02440F
:105338000346934202D003F8011BFAE770470000C6
:1053480038B5124B1C68A36B0546D3B91820FFF774
:10535800E9F843F20E33A06303804AF6CD33438065
:1053680041F2342383804EF26D63C3804DF6EC63C3
:105378000381052343810B23838101220023C0E994
:105388000423A36B00221D615A6138BDBCE30320CE
:10539800034613F8012B002AFBD1181A013870476D
:1053A8001D400D0059400D0085400D0089400D003D
:1053B800000000000000000000000000AB450D00E8
:1053C800A1450D0097450D008D450D0081450D0047
:1053D80075450D0069450D0061450D0057450D00E7
:1053E8004D450D00654E0D00000000000000000056
:1053F800C9450D00CB450D0000081018202830388D
:1054080066006C6E00666E00636F646500646574A8
:1054180061696C000D0A00253031307520005D206F
:10542800002564002C200028293A2000205B006316
:105438006F6465203D200025690064657461696CAE
:1054480073203D2000626175640053657269616C68
:105458000053657269616C31007479706500706120
:1054680072616D00636D6400696400686E64007346
:1054780074726D0066696C74006C766C00616464AB
:1054880048616E646C65720072656D6F766548611F
:105498006E646C657200656E756D48616E646C65EE
:1054A8007273004A534F4E53747265616D4C6F6747
:1054B80048616E646C657200617070006E6F6E6535
:1054C80000747261636500696E666F007761726E61
:1054D800006572726F720070616E696300616C6C56
:1054E800005A00252B3033643A253032750025598F
:1054F8002D256D2D25645425483A254D3A255325EB
:105508007A0061736374696D650000000000000033
:1055180000000000BD480D00AD480D00AF480D006B
:10552800000000000000000095490D00E5490D004D
:10553800F3490D00C5460D00D1490D0097490D00EE
:10554800AD490D00DF490D00C3490D0091490D001B
:105558000000000000000000994A0D00E94A0D0013
:10556800F74A0D00C5460D00AD4A0D00CF4A0D00A3
:10557800BB4A0D00E34A0D009B4A0D009F4A0D00EF
:1055880000000000000000009D4B0D00E74B0D00DF
:10559800BF4B0D009F4B0D00C74B0D00CF4B0D00AF
:1055A800D74B0D00DF4B0D0000000000000000008D
:1055B8007F4C0D00754C0D006B4C0D00614C0D00BF
:1055C800554C0D00494C0D003D4C0D00354C0D005F
:1055D8002B4C0D00214C0D00654E0D000000000005
:1055E80000000000DF4D0D00D54D0D00CB4D0D0026
:1055F800814D0D00BF4D0D00B34D0D00A74D0D00A1
:105608009F4D0D00954D0D008B4D0D00654E0D0005
:105618000000000000000000FD4D0D00074E0D00C9
:10562800114E0D001B4E0D00254E0D00314E0D0084
:105638003D4E0D00494E0D00514E0D005B4E0D00C4
:10564800654E0D0000000000000000000000000092
:105658000000000000000000000000000000000042
:105668000000000000000000000000000000000032
:105678000000000000000000000000000000000022
:105688000000000000000000000000000000000012
:105698000000000000000000000000000000000002
:1056A800000000004300000061410D00B5450D00F9
:1056B8009D460D00B5460D0075470D0085470D0048
:1056C800BD470D00354D0D00E94D0D00314F0D0062
:1056D800E14F0D0075500D00F9500D00BD510D0042
:0856E80081520D0000000000DA
:1056F0000A550D00000000004C560D006C560D00C0
:105700008C560D00000000000000000000000000AA
:1057100000000000AC560D0000000000000000007A
:105720000000000000000000000000000000000079
:105730000000000000000000000000000000000069
:105740000000000000000000000000000000000059
:08575000000000005CE30320EF
:10575800FFFFFFFF00000102030405060708090A0E
:105768000B0C0D0E0F101112131415161718191A09
:085778001B1C1D1E1F20280050
:045780007856341211
:04000003D0004018D1
:00000001FF
